:100000000C9452040C948A040C946F040C946F04A6
:100010000C946F040C946F040C946F040C946F0494
:100020000C946F040C946F040C946F040C946F0484
:100030000C946F040C946F040C946F040C946F0474
:100040000C946F040C946F040C946F040C946F0464
:100050000C946F040C946F040C946F040C946F0454
:100060000C946F040C946F040C946F040C946F0444
:100070000C946F040C946F040C946F04BB08C108BB
:10008000C708CD08D308D908DF08E508EB08F10850
:10009000F708FD08030909090F0915091B092109BA
:1000A00027092D09330939093F0945094B09510928
:1000B00057095D09630969096F09750985098B0984
:1000C000910997099D09A309A909AF09B509BB09B8
:1000D000C109C709CD09D309D909DF09E509EB0928
:1000E000F109F709FD09030A090A0F0A150A1B0A93
:1000F000210A270A2D0A330A390A3F0A4F0A520AEF
:10010000550A580A5B0A5E0A610A640A670A6A0AA3
:100110006D0A700A730A760A790A7C0A7F0A820AD3
:10012000850A880A8B0A8E0A910A940A970A9A0A03
:100130009D0AA00AA30AA60AA90AAC0A0902540049
:1001400003010080320904000001030101000921BC
:10015000110100012240000705810308000A09047B
:1001600001000103010200092111010001228400A4
:100170000705820308000A090402000103000000C9
:100180000921110100012215000705030308000AD7
:1001900012011001000000084A646002010001021F
:1001A00000011A0376007500730062005F006B00A7
:1001B000650079005F00320030004D000A037A00CC
:1001C000690061006E00040309040631FF0974A18F
:1001D000010975150026FF00950875089102C005F4
:1001E000010902A10185010901A1000509190129DF
:1001F000051500250175019505810275039501819D
:10020000030501093009311581257F7508950281A3
:100210000609381581257F3500450075089501814F
:1002200006050C0A38021581257F7508950181069F
:10023000C0C005010980A1018502150126B700197A
:100240000129B7751095018100C0050C0901A101B4
:1002500085031501269C0219012A9C02751095013F
:100260008100C005010906A101750195080507195E
:10027000E029E715002501810295017508810395A4
:10028000057501050819012905910295017503916C
:100290000395067508150026FF000507190029FFBC
:1002A0008100C000000001010102030404050708E9
:1002B000090A0C0D0F1112141617191B1D1F2122EC
:1002C000242628292B2D2E30313334353637383932
:1002D0003A3A3B3B3C3C3C3C3C3C3D3D3E3E3F4057
:1002E000414243444647494A4C4D4F515254565857
:1002F000595B5D5F6062646567696A6B6D6E6F70A4
:10030000717273747475757676767676767676769F
:100310007676767676767676767676777777777778
:100320007777777777777777777777777878787859
:10033000787878787878787878787878787878783D
:100340007879797A7A7B7B7C7D7E7F7F80828384DB
:10035000858687898A8B8C8E8F90919294959697BB
:1003600098999A9B9C9D9D9E9F9FA0A0A0A1A1A1B2
:10037000A1A1A1A2A2A3A3A4A5A6A7A9AAACADAF1F
:10038000B0B2B4B6B8BABCBEC0C2C4C6C8CACCCE7D
:10039000D0D2D4D6D8D9DBDCDEDFE0E1E2E3E3E49F
:1003A000E4E5E5E5E5E4E4E3E2E0DFDDDBD8D6D350
:1003B000D0CDCAC6C2BFBBB7B3AFABA6A29E9A95FB
:1003C000918D8985817D7A7673706D6A67656361C9
:1003D0005F5E5C5B5B5A5A5A5A5959585756555486
:1003E0005351504E4C4A484644423F3D3A383633CA
:1003F000302E2B292724221F1D1B1917151312100D
:100400000F0D0C0B0A090908080808080808080954
:1004100009090A0A0A0B0B0C0D0D0E0E0F10101114
:1004200012131314151516171818191A1A1B1B1C5A
:100430001D1D1E1E1E1F1F1F2020202020202020CB
:10044000202020201F1F1F1F1F1E1E1E1E1D1D1DC2
:100450001C1C1C1B1B1A1A1A191919181818171703
:10046000171616161615151515151414141414143C
:100470001414141414131313131212121111101054
:100480000F0F0E0E0D0D0C0B0B0A0A0908080707BB
:100490000606050404030303020201010101000032
:1004A0000000003939393939383838373736363578
:1004B000343433323231302F2E2D2C2B2B2A292855
:1004C000272625242323222120201F1E1E1D1D1C1C
:1004D0001C1C1B1B1B1B1B1B1B1B1B1A1A1A191971
:1004E00019181817161615141413121111100F0ECF
:1004F0000D0D0C0B0A090808070606050404030382
:1005000002020101010000000000000000000000E4
:1005100000000000000000000000000000000000DB
:1005200000000000000000000000000000000000CB
:1005300000000000000000000000000000000000BB
:100540000101020304050607080A0B0D0F1113151C
:1005500017191B1D1F212426282A2C2E313335372D
:10056000383A3C3D3F404243444546464747484869
:10057000484849494A4B4C4E4F515356585B5D6071
:1005800063666A6D7074787B7F83868A8E91959896
:100590009C9FA2A5A8ABAEB0B3B5B7B9BBBCBDBE5E
:1005A000BFC0C0C0C0C0C0C0C0C0BFBFBFBFBEBE54
:1005B000BEBEBDBDBDBCBCBBBBBBBABAB9B9B8B889
:1005C000B8B7B7B6B6B6B5B5B4B4B4B4B3B3B3B3DD
:1005D000B3B2B2B2B2B2B2B2B2B2B2B2B2B2B2B3F9
:1005E000B3B3B3B3B3B4B4B4B4B4B5B5B5B5B6B6C8
:1005F000B6B6B7B7B7B7B7B8B8B8B8B9B9B9B9B97F
:10060000B9B9BABABABABABABABABABABABBBBBB49
:10061000BCBDBDBEBFC0C1C2C4C5C6C7C9CACCCDA2
:10062000CFD0D2D4D5D7D8DADBDDDEE0E1E2E3E526
:10063000E6E7E8E9EAEAEBECECECEDEDEDEDEDED0B
:10064000ECECEBEAE9E8E7E5E4E2E1DFDDDBD9D772
:10065000D4D2D0CECBC9C6C4C2BFBDBBB8B6B4B26B
:10066000B0AEACAAA9A7A6A5A3A2A1A1A0A09F9F36
:100670009F9F9F9E9D9C9B9A99979593918F8D8A02
:10068000888582807D7A7773706D6A6764615E5B4E
:10069000585552504D4B48464442413F3E3C3B3BEF
:1006A0003A3939F3F3F3F3F3F3F3F3F3F2F2F2F24B
:1006B000F2F2F2F1F1F1F1F1F0F0F0F0F0EFEFEF32
:1006C000EFEFEEEEEEEEEEEDEDEDEDEDEDEDECEC53
:1006D000ECECECECECECECECECECECEBEBEBEBEA60
:1006E000EAE9E9E8E8E7E6E6E5E4E4E3E2E1E0E0B8
:1006F000DFDEDDDCDCDBDAD9D9D8D7D7D6D6D5D565
:10070000D4D4D3D3D3D2D2D2D2D2D2D2D1D1D0CFC9
:10071000CECCCBC9C7C5C3C0BEBBB9B6B3B0ADA9FB
:10072000A6A3A09C999693908C898683807E7B79E2
:10073000767472706E6D6B6A696868676767676701
:1007400066666565646362615F5E5D5B5A585655B7
:1007500053514F4D4B4947454342403E3C3A383751
:10076000353332302F2E2D2C2B2A292828272727C6
:100770002727272726262625252423232221201F35
:100780001E1D1C1B1A1918171614131211100F0E08
:100790000D0B0A09080807060504040303020202F8
:1007A000010101010101010101020202020303032F
:1007B000040404050506060707080809090A0A0BC8
:1007C0000B0C0C0D0D0E0E0F0F0F10101011111140
:1007D00011121212121212121212131314151516EC
:1007E00017181A1B1C1E1F2122242628292B2D2FE7
:1007F00031333536383A3C3E3F414244454748491B
:100800004A4B4C4D4D4E4E4F4F4F4F4F5051525300
:100810005557595B5D606366696D7174787C80843F
:10082000898D91969A9EA2A7ABAFB3B7BABEC2C547
:10083000C8CBCED0D2D4D6D8D9DADBDCDCDCDCDC59
:10084000DCDCDDDDDDDEDEDFDFE0E0E1E2E2E3E4B3
:10085000E4E5E6E7E8E9E9EAEBECEDEDEEEFF0F0F0
:10086000F1F2F2F3F4F4F5F5F5F6F6F6F7F7F7F73B
:10087000F7F7F7F7F7F7F7F7F7F7F7F7F6F6F6F60C
:10088000F6F6F6F6F6F6F5F5F5F5F5F5F5F5F4F414
:10089000F4F4F4F4F4F4F4F4F3F3F3F3F3F3F3F320
:1008A000F3F3F30011241FBECFEFD0E1DEBFCDBFC5
:1008B00012E0A0E0B1E0ECEEF1E202C005900D9292
:1008C000A23AB107D9F724E0A2EAB2E001C01D9232
:1008D000A937B207E1F70E94D30A0C94F4100C94E4
:1008E0000000A82FB92F80E090E041E050EA609529
:1008F00030E009C02D9182279795879510F08427C5
:100900009527305EC8F36F5FA8F30895EADF8D93F3
:100910009D930895CF93CFB7CF93DF93C3954B9B10
:10092000E9F74B9B11C04B9B0FC04B9B0DC04B9BE2
:100930000BC04B9B09C04B9B07C04B9B05C04B9BFF
:1009400003C04B9B01C086C06F93C0915004DD274C
:10095000C95ADB4F2F9320E400C065E04B9B03C0D6
:100960002F916F91DECF0F931F934F9345E55F93C8
:1009700055E53F933BE014E009B10C702EC06A9539
:10098000C9F03150D8F109B10C7001130BC00894B3
:100990002795299320E4555500F46A9569F701E0FD
:1009A00069B10BC0102F66E02695299320E45555B8
:1009B00018F3E2CF0FEF69B10000162F455500F094
:1009C000404066E01C700030E2F221F0000009B106
:1009D0000C7003C009B10C70A9F0011309C0089490
:1009E000279568F200C06A95A9F700E069B1E5CFE4
:1009F000102F66E0269528F20000ECCF11E01CBB1A
:100A000000271CC03B503195C31BD04011E01CBBDC
:100A10000881033C21F10B3411F120914E0419811E
:100A2000110F1213EDCF4A81441F093669F10D32BF
:100A300011F0013E29F74F7009F0042F009355047F
:100A40003F915F914F911F910F912F916F91CCB377
:100A5000C0FD64CFDF91CF91CFBFCF91189520918A
:100A60005504222369F3109153041123D9F534302E
:100A7000DAF13093530420934F04109150043BE07B
:100A8000311B3093500430C000915304013054F5B1
:100A90000AE54F7049F43091A00234FD26C000935E
:100AA000A002C7E3D4E025C0423049F030914204AF
:100AB00034FD1BC000934204C3E4D4E01AC030915B
:100AC0006D0434FD12C000936D04CEE6D4E011C075
:100AD000052710E000C00BB919C0052710E0221F40
:100AE00000C01DC04AE502C032ED432FC4E1D0E092
:100AF00032E01AB11C605B9A0BB11AB95CE020E8D5
:100B000069E420FF05270BB92795179500C0000061
:100B10001C3FF0F66695A8F7A1F720FF05270BB953
:100B20002795179500001C3FC0F629913A9541F78B
:100B3000037F10915404110F0BB9C651D04011F02E
:100B400010934E0411E01CBB08601AB1137F402FB4
:100B5000437F55E05A95F1F70BB91AB94BB970CFED
:100B600080915604882321F18091420484FF20C0A3
:100B70008091A3029091A4029817D1F090E0880F81
:100B8000991F880F991F880F991F68E08B559D4FFB
:100B90000E94E10E8091A30290E001968F719078FF
:100BA000992324F40197806E9F6F01968093A3028E
:100BB00008958091D603882351F11092D603A09115
:100BC000A402B0E0CD0101968F719078992324F4AE
:100BD0000197806E9F6F01962091A302281789F0DC
:100BE000AA0FBB1FAA0FBB1FAA0FBB1FAB55BD4F40
:100BF00098E0E2EBF3E001900D929A95E1F7809393
:100C0000A4020E94EB0E0E94B00581E0089580E0EE
:100C100008958091E3039091D803981721F0809371
:100C2000D80381E001C080E02091E8033091E9031E
:100C30004091DE035091DF034217530779F0E7ED4F
:100C4000F3E0308727832091EA033091EB0382851C
:100C500093858217930769F482E012C02091EA031A
:100C60003091EB034091E1035091E20342175307A7
:100C700031F03093E2032093E10383E001C081115E
:100C80008093ED0308958091CA039091B203981761
:100C900021F08093B20381E001C080E09091CB030A
:100CA0002091B403291719F09093B40381E0909137
:100CB000CC032091B503291719F09093B50381E077
:100CC0009091CD032091B603291719F09093B603A4
:100CD00081E09091CE032091B703291719F09093EA
:100CE000B70381E09091CF032091B803291751F009
:100CF000E2EBF3E096839091D0038781891308C0DB
:100D000081E00BC09091D0032091B903291721F005
:100D10009093B90381E001C081118093D6030895B7
:100D20000F931F93CF93C091ED03CC23C1F181E0CA
:100D30008093A2020DE614E00E94EB0EF801808180
:100D4000C82FC07184FF22C0C091ED03C13041F4AF
:100D500066E087ED93E00E94E60E1092ED031FC05F
:100D6000C23049F463E08DED93E00E94E60E1092EC
:100D7000ED03C1E014C0C33089F463E080EE93E07A
:100D80000E94E60E1092ED03C1E009C08091A2021C
:100D90008F5F8093A202823378F201C0C1E08C2F72
:100DA000CF911F910F9108950E94EB0E0E94B00504
:100DB00008954091CB03841719F1ACECB3E021ED19
:100DC00033E0FD0191919817E9F0E217F307D1F7AD
:100DD000442339F021E030E0A9019D91911109C02F
:100DE00002C040E050E0FA01E653FC4F818381E00D
:100DF00008952F5F3F4F2630310571F780E0089549
:100E000081E0089581E00895EAECF3E09081892B78
:100E100080830895E3EEF3E09081892B8083089529
:100E200090E09093E9038093E8030895982F907FD2
:100E3000903939F138F4903259F19038D9F0911154
:100E400034C02DC0903C51F0903E71F0903B69F55C
:100E500090E09093EB038093EA03089590E09093E1
:100E6000EB038093EA03089590E09093EB03809363
:100E7000EA03089590E091609093EB038093EA0376
:100E8000089590E091609093EB038093EA030895B6
:100E900090E092609093EB038093EA03089590E0D2
:100EA00092609093EB038093EA030895E3EEF3E0FE
:100EB000108216821582108617820895EAECF3E0FC
:100EC0001182128213821482158216821082089572
:100ED0003F924F925F926F927F928F929F92AF92CA
:100EE000BF92CF92DF92EF92FF920F931F93CF9317
:100EF000DF93482E7B010F2EF7E3AF2EF1E0BF2EDC
:100F0000F02D0F2EFFEACF2EF1E0DF2EF02D0F2E69
:100F1000F7E26F2EF2E07F2EF02D512C35C081E0EC
:100F2000481669F0481620F0E2E04E1681F016C02F
:100F3000C701850D911D0E94C31088830FC0C70192
:100F4000850D911D0E94C310F801808307C0C70161
:100F5000850D911D0E94C310F40180835394219646
:100F60000F5F1F4FFFEF8F1A9F0A5310D8CF8FE0EC
:100F7000A80EB11CEFE0CE0ED11CFFE06F0E711C6D
:100F8000532C88E7381649F00F2EFFE03F2EF02D46
:100F9000350C43018601E501C2CFDF91CF911F914E
:100FA0000F91FF90EF90DF90CF90BF90AF909F9008
:100FB0008F907F906F905F904F903F900895CF9269
:100FC000DF92EF92FF920F931F93CF93DF9380E016
:100FD00090E00E94CB10EC0182E090E00E94CB10E8
:100FE0008C0184E090E00E94CB107C0186E090E0D0
:100FF0000E94CB106C0188E090E00E94CB102A97F1
:1010000009F040C002311105E9F521E2E216F104D0
:10101000C9F5E9E9CE16D104A9F58131914091F5E0
:101020000FE211E0CAE0D0E0CE010E94C310F80147
:1010300081938F012196C231D105B1F70F2EFFE2C6
:10104000EF2EF1E0FF2EF02DC0E2D1E002E110E042
:1010500000521140C8018C0F9D1F0E94C31089933C
:10106000CE15DF05B9F761E270E080E00E94680705
:1010700069E970E081E00E94680761E171E082E067
:101080000E946807DF91CF911F910F91FF90EF9021
:10109000DF90CF900895CF93DF93683009F05EC062
:1010A000FC0180818F3FB9F48181813F41F48091BF
:1010B000D203813009F052C01092D2034FC0823F58
:1010C00051F48091D203811149C082E08093D20310
:1010D0000E941C0B43C08091D20381113FC088E065
:1010E000AAEAB3E0ED0119928A95E9F722EB33E021
:1010F00081918D93A217B307D9F7C091AA03D0911C
:10110000AB030E94170BCE3F21E0D20748F4F999B8
:10111000FECF6091AC037091AD03CE010E94D1105F
:10112000CE0102968E3F21E0920740F4F999FECF5E
:101130006091AE037091AF030E94D110CE0104966E
:101140008E3FC1E09C0740F4F999FECF6091B00357
:101150007091B1030E94D1100E941C0BDF91CF91BE
:10116000089590E08032910508F0C4C0FC01E25C73
:10117000FF4F0C94BD10662311F0089A089508984B
:101180000895662311F0099A089509980895662331
:1011900011F00A9A08950A980895662311F00B9A9F
:1011A00008950B980895662311F00C9A08950C98F1
:1011B0000895662311F00D9A08950D9808956623F9
:1011C00011F00E9A08950E980895662311F00F9A63
:1011D00008950F980895662311F0209A0895209895
:1011E0000895662311F0219A0895219808956623A1
:1011F00011F0229A089522980895662311F0239AF7
:10120000089523980895662311F0249A0895249848
:101210000895662311F0259A089525980895662368
:1012200011F0269A089526980895662311F0279ABA
:10123000089527980895662311F0389A08953898EC
:101240000895662311F0399A089539980895662310
:1012500011F03A9A08953A980895662311F03B9A4E
:1012600008953B980895662311F03C9A08953C98A0
:101270000895662311F03D9A08953D9808956623D8
:1012800011F03E9A08953E980895662311F03F9A12
:1012900008953F980895662311F0509A0895509844
:1012A0000895662311F0519A089551980895662380
:1012B00011F0529A089552980895662311F0539AA6
:1012C000089553980895662311F0549A08955498F8
:1012D0000895662311F0559A089555980895662348
:1012E00011F0569A089556980895662311F0579A6A
:1012F00008955798089590E08032910508F0C4C091
:10130000FC01E25AFF4F0C94BD10662311F0109AB5
:10131000089510980895662311F0119A0895119870
:101320000895662311F0129A08951298089566237D
:1013300011F0139A089513980895662311F0149AE2
:10134000089514980895662311F0159A0895159834
:101350000895662311F0169A089516980895662345
:1013600011F0179A089517980895662311F0289A96
:10137000089528980895662311F0299A08952998C8
:101380000895662311F02A9A08952A9808956623ED
:1013900011F02B9A08952B980895662311F02C9A3A
:1013A00008952C980895662311F02D9A08952D988C
:1013B0000895662311F02E9A08952E9808956623B5
:1013C00011F02F9A08952F980895662311F0409AEE
:1013D000089540980895662311F0419A0895419820
:1013E0000895662311F0429A08954298089566235D
:1013F00011F0439A089543980895662311F0449A92
:10140000089544980895662311F0459A08954598E3
:101410000895662311F0469A089546980895662324
:1014200011F0479A089547980895662311F0589A45
:10143000089558980895662311F0599A0895599877
:101440000895662311F05A9A08955A9808956623CC
:1014500011F05B9A08955B980895662311F05C9AE9
:1014600008955C980895662311F05D9A08955D983B
:101470000895662311F05E9A08955E980895662394
:1014800011F05F9A08955F98089590E08032910579
:1014900008F065C0FC01E258FF4F0C94BD1080B10C
:1014A0008170089580B18270089580B1847008952C
:1014B00080B18870089580B18071089580B1807284
:1014C000089580B18074089580B18078089583B1C3
:1014D0008170089583B18270089583B184700895F6
:1014E00083B18870089583B18071089583B180724B
:1014F000089583B18074089583B18078089586B18A
:101500008170089586B18270089586B184700895BF
:1015100086B18870089586B18071089586B1807211
:10152000089586B18074089586B18078089589B150
:101530008170089589B18270089589B18470089589
:1015400089B18870089589B18071089589B18072D8
:10155000089589B18074089589B18078089580E0F4
:101560000895CF93C82F843059F48091B203882313
:1015700021F085E30E94D90603C089E20E94D906C2
:101580008091FA03C82BC093FA03CF9108958091FC
:10159000FA039091FD03981721F08093FD0381E0F9
:1015A000089580E008950E944A0D08951092300435
:1015B000E0E0F0E0E05EFE4F60E080810E94B10874
:1015C000E0913004F0E0E05EFE4F61E080810E9437
:1015D0007B09E0913004EF5FE0933004EF3048F393
:1015E000089514B881E085B9089544B121E030E050
:1015F000B90102C0660F771F8A95E2F7CB01462B2F
:1016000044B995B18095892385B98091A70380FD60
:1016100004C08091D10380FF05C061E08CE10E948D
:101620007B09089560E08CE10E947B09089561E0E8
:1016300089E10E947B09089560E089E10E947B09AD
:10164000089561E089E10E94B10860E089E10E94AB
:101650007B0961E08CE10E94B10860E08CE10E94AE
:101660007B091092A7030E94851080E094E090937C
:101670003404809333040E9487100E949C100895C4
:101680009091A7038091FD0389278093A70380E0B1
:1016900008950F931F93CF93DF938091D10381FF20
:1016A00005C061E089E10E947B0904C060E089E136
:1016B0000E947B098091330490913404811524E0C9
:1016C000920708F43EC08091A70381FD04C0809179
:1016D000D10382FF28C0C0E0D1E000E010E0288103
:1016E0003981F901ED55F94F6491F901ED55FB4F41
:1016F0004491F901ED55FD4F2491C8010E949010CD
:10170000888199810196811522E0920718F49983C6
:10171000888302C0198218820F5F1F4F2296003102
:101720001105E9F602C00E94871080913304909160
:101730003404019790933404809333040E949C10E6
:101740000EC0009731F001979093340480933304D6
:1017500006C080E094E09093340480933304DF91DA
:10176000CF911F910F9108951F93CF93DF9380EF37
:101770008093320410922F0480E0CFE01C2FD6E03B
:101780000E94F50A10923104E0E0F0E0E05EFE4FC6
:1017900080810E94450A882379F0E0912F0480918E
:1017A0003104CE9FF0011124E95DFD4FE80FF11DDA
:1017B00080818777808310C0E0912F04809131046D
:1017C000CE9FF0011124E95DFD4FE80FF11D8081EE
:1017D00088688083D093A603E0913104A0912F0400
:1017E000CA9FD0011124A95DBD4FAE0FB11D8C91D0
:1017F0008E3E11F410933204EF5FE0933104EF302A
:1018000020F20E94F10A80912F048F5F80932F04B1
:10181000883008F4B5CF0E945E070E9456071092E8
:10182000FA0310922F04CFE01092310480E040912F
:101830002F0450E090E0C49FF001C59FF00D1124EB
:10184000E95DFD4FE80FF91F308120913204232319
:101850002F3009F4BFC090F42B3009F491C038F454
:10186000293009F471C02A3009F47CC0C0C02C3082
:1018700009F494C02D3009F49FC0B9C0203B61F138
:1018800028F4203969F0203AC9F0B1C0203D09F4AC
:101890003FC0203F09F44AC0203C09F0A8C02AC03C
:1018A000C49F9001C59F300D1124295C3E4FF90162
:1018B000E80FF91F80810E94D90699C0C49F90014A
:1018C000C59F300D1124295C3E4FF901E80FF91F27
:1018D00080810E9404078BC0C49F9001C59F300D7A
:1018E0001124295C3E4FF901E80FF91F80810E9405
:1018F0000A077DC0C49F9001C59F300D1124295C4B
:101900003E4FF901E80FF91F80810E9410076FC058
:10191000C49F9001C59F300D1124295C3E4FF901F1
:10192000E80FF91F80810E94160761C0C49F9001D3
:10193000C59F300D1124295C3E4FF901E80FF91FB6
:1019400080810E94B10A53C0C49F9001C59F300D91
:10195000112421553E4FF901E80FF91F80810E94A3
:10196000D90645C0C49F9001C59F300D1124215553
:101970003E4FF901E80FF91F80810E94040737C02C
:10198000C49F9001C59F300D112421553E4FF90190
:10199000E80FF91F80810E940A0729C0C49F9001A7
:1019A000C59F300D112421553E4FF901E80FF91F55
:1019B00080810E9410071BC0C49F9001C59F300DFD
:1019C000112421553E4FF901E80FF91F80810E9433
:1019D00016070DC0C49F9001C59F300D11242155DD
:1019E0003E4FF901E80FF91F80810E94B10A8091F2
:1019F00031048F5F809331048F3008F418CF8091C9
:101A00002F048F5F80932F04883008F40DCF0E943D
:101A1000C70A882319F083E08093A5030E94430638
:101A2000882319F083E08093A5030E940906882388
:101A300019F083E08093A5038091A603863051F4CA
:101A40008091A5038130F9F40E94400B0E94D905D2
:101A50000E9490068091A603813031F40E94400BD1
:101A60000E94D9050E9490068091A603882319F050
:101A700081508093A6038091A503882339F081507B
:101A80008093A50303C08091A603F2CFDF91CF918D
:101A90001F9108950E94DF0D0E94D60A0E94F10A4C
:101AA000CAECD3E011E00F2EF2E4EF2EF4E0FF2EAB
:101AB000F02D0E94210B18870E945E070E94560796
:101AC0000E94DF072FE784E89EE12150804090408C
:101AD000E1F700C000000E94D9050E94D406888565
:101AE000823039F38130C9F70E94B40B80915604DB
:101AF000882399F3F701808184FFEFCF8091A503BC
:101B00008111EBCF0E94490BE8CFEEE6F0E0808137
:101B10008E7F8083EFE6F0E080818E7F8083E0E738
:101B2000F0E080818E7F8083089555985D9A0895B6
:101B3000CF93DF938CE0EEEEF3E0DF01C82F1D9230
:101B4000CA95E9F7E7EDF3E0DF011D928A95E9F721
:101B50008BE0A3EEB3E0ED0119928A95E9F781E0FD
:101B6000808382E0868383E08187DF91CF9108952F
:101B700088E0E2ECF3E0DF01982F1D929A95E9F7F7
:101B8000E2EBF3E0DF011D928A95E9F7EAECF3E07E
:101B90008DE0DF011D928A95E9F781E08087089545
:101BA00088E0EAEBF3E0DF01982F1D929A95E9F7C0
:101BB000EAEAF3E0DF011D928A95E9F708950E94B1
:101BC000850D0E94950D0E947210539A8FEFA89573
:101BD000E7E8F3E13197F1F700C000008150B9F771
:101BE000539878940E94B80D0E94980D0E94D00DD1
:101BF0001092FA031092FD03E1E6F0E080E88083A2
:101C000010820895FC0190933604809335049081EE
:101C10009076903271F58181813041F482EB93E0CE
:101C2000909352048093510488E00895823041F4E7
:101C300088EA93E0909352048093510481E00895E0
:101C40008A3029F483818093A80380E00895893045
:101C500091F4828193818115924079F484819581F8
:101C6000892B69F4EAECF3E08781806887838FEF42
:101C7000089580E0089580E008958FEF08958FEF34
:101C80000895FC019091D10399232CF480818093D5
:101C9000D10381E008958FEF0895EF92FF920F93A3
:101CA0001F93CF93DF93EA01209142042E31F9F084
:101CB000288124FF05C0398128E82327298302C011
:101CC0002AE52883E82FF92F7E0182E0E80EF11C37
:101CD000D701962F21912D939150E1F78E01C62FB8
:101CE000C7010E94860464E06C0FF8016083DF91F5
:101CF000CF911F910F91FF90EF900895FC01938178
:101D0000923089F018F4913031F055C0913299F049
:101D1000923281F150C080E991E090935204809317
:101D2000510482E108958CE391E0909352048093F2
:101D3000510484E508958281813061F018F0823089
:101D400089F03BC08EE491E090935204809351045B
:101D500089E0089587E691E09093520480935104BE
:101D600089E0089580E891E09093520480935104B3
:101D700089E00895848195818130910561F018F0A2
:101D8000029789F01CC083E692E0909352048093FE
:101D9000510480E408958FED91E090935204809374
:101DA000510484E808958AEC91E090935204809362
:101DB000510485E1089580E0089580E0089580E071
:101DC000089542E454E00E944D0E08954DE654E01B
:101DD0000E944D0E0895CF93DF936091530463509A
:101DE0000AF411C1209150048CE090E0821B91090B
:101DF000EC01C95ADB4F80914F04803120F4CE01B1
:101E00000E944B08FEC08D3209F0EBC0683009F02B
:101E1000F8C083EC809337048AE58093A002109287
:101E2000A9039881892F807621F0CE010E94020EAD
:101E3000C4C02A813C81109240048981811113C061
:101E40009F71923051F4313841F49091420481E015
:101E50009E3109F080E0809340041092410420E418
:101E600034E082E0A6C0982F9D7F9130A9F4211123
:101E70008DC0313809F08EC0813011F08EE101C083
:101E80008AE5E2E4F4E080838BE4818380936E044E
:101E900020E434E080E08DC0853031F42093540498
:101EA00020E434E080E085C0863009F04CC08B81AE
:101EB000813041F480E991E0909352048093510481
:101EC00082E13DC0823041F48CE391E09093520472
:101ED0008093510484E533C08330F1F4211108C0AC
:101EE00086EC91E0909352048093510484E027C0E3
:101EF000213041F48CEB91E0909352048093510493
:101F00008AE01DC02230C1F482EA91E0909352042D
:101F1000809351048AE113C0813241F48EE491E050
:101F2000909352048093510489E009C0823231F4C5
:101F3000CE010E947E0E03C080E001C080E090E4EC
:101F40009093A9033AC0883049F1893059F420931D
:101F500056048AE58093420480936D0420E434E0C3
:101F600080E027C08A30F1F08B3001F5A2E4B4E0C4
:101F70008BE411968C931197EDE6F4E081838AE56A
:101F80008C93808320E434E080E013C020E434E0CC
:101F900080E00FC020E434E080E00BC026E534E0B0
:101FA00081E007C020E434E081E003C020E434E0B5
:101FB00080E030935204209351048F3F41F4988184
:101FC00099230CF48E8190E89093A90307C09F8118
:101FD000911104C09E81981708F4892F80939F0265
:101FE00010C08091A903882364F4CE010E94410EA1
:101FF0008F3F21F48EE18093A00203C081111092E3
:102000009F02109253048091A00284FF4DC08091E2
:102010009F028F3F09F448C0C82F893008F0C8E0FC
:102020008C1B80939F02E7E3F4E0908188E8892786
:102030008083CC2309F44BC0209151043091520489
:102040008091A90386FF10C0A8E3B4E0F9018C2FAA
:1020500094919D9331968150D9F78FEF8C0F90E03A
:102060000196280F391F0EC0D901E8E3F4E08C2F48
:102070009D9191938150E1F78FEF8C0F90E0019645
:10208000280F391F30935204209351046C2F88E39A
:1020900094E00E94860464E06C0F6C3018F48FEFBB
:1020A00080939F026093A00289B18C70C1F493E188
:1020B00089B18C70A1F49150D9F710925404109208
:1020C0004E048AE58093420480936D0408C06C2F0F
:1020D00088E394E00E94860464E06C0FE0CFDF9117
:1020E000CF910895E9E6F0E0808182608083E89AEC
:1020F000A2E4B4E08BE411968C931197EDE6F4E042
:1021000081838AE58C9380830895399A0895EFEF4F
:10211000F3E08FE294E01192E817F907E1F70895F0
:10212000FC01EE0FFF1F8E0F9F1FFC01E150FC4FC3
:102130004083618322830895F89428B12D7F98B15C
:102140009260EFEFF3E04FE254E0819138E098B90C
:10215000000000C000C087FF28B9880F000000C041
:1021600000C000C000C028B9000000C03A9579F74F
:10217000E417F50751F778940895EE0FFF1F0590C7
:10218000F491E02D0994F999FECF92BD81BDF89AA2
:10219000992780B50895A8E1B0E042E050E00C94A2
:1021A000D8100E94E610272F0C94E710DC01CB0119
:1021B000FC01F999FECF06C0F2BDE1BDF89A319657
:1021C00000B40D9241505040B8F70895262FF99968
:1021D000FECF1FBA92BD81BD20BD0FB6F894FA9A0A
:0C21E000F99A0FBE01960895F894FFCF05
:1021EC0000002200440066008800AA00CC00EE002B
:1021FC00EE00CC00AA00880066004400220000001B
:10220C0000010203040506071716151413121F0804
:10221C00090A0B0C0D0E0F01080400000000000051
:10222C00001000000000021D1B0619050000000034
:10223C00382000000039041607090A00000000339A
:10224C00340028002B141A08151700000000132F57
:10225C00303100041E1F20212200000000272D2EEB
:10226C002A2A00000000000000000000000000000E
:10227C000000231C0B112C5051524F0024180D1030
:10228C000026120F37404C00000000250C0E3601C2
:10229C0008040000000000000010000000000253C1
:1022AC004749000000000000E22000000000000090
:1022BC000000000000000000000000000000000012
:1022CC000000000000004600000000043A3B3C3DCA
:1022DC003E000000004344452A2A00000000000094
:1022EC00000000000000000000003F0000002C5027
:1022FC0051524F004000000000420000E9404C00E9
:10230C00000000410000EA222222006600000000CA
:10231C0000226600000022111111101000000000B4
:10232C0015220000001010101010100000000010FA
:10233C0010001000101010101010000000001110F0
:10234C001010007711111111110000000011111162
:10235C00111100000000000000000000000000004F
:10236C00000011101010111111111100111010108A
:10237C00001110101522110000000011101015FF93
:02238C005A00F5
:00000001FF
