:100000000C943A010C9472010C9457010C94570112
:100010000C9457010C9457010C9457010C94570100
:100020000C9457010C9457010C9457010C945701F0
:100030000C9457010C9457010C9457010C945701E0
:100040000C9457010C9457010C9457010C945701D0
:100050000C945701EF060307DB060B07E506F906CC
:10006000D1060F07EA06FE06D6060707E006F406E5
:10007000CC06C706B306BD06A906C206AE06B8067C
:10008000A4069F0695069A0690068B0686068106AC
:100090007C067806D307E707BF07EF07C907DD0728
:1000A000B507F307CE07E207BA07EB07C407D8077F
:1000B000B007AB079707A1078D07A60792079C0714
:1000C0008807830779077E0774076F076A07650744
:1000D00060075C079C0899089608930890088D08AB
:1000E0008A088708840881087E087B0878087508D4
:1000F00072086F086C0869086608630860085D0884
:100100005A085708540851084E084B084808450833
:1001100042089F08090254000301008032090400CC
:100120000001030101000921110100012240000723
:1001300005810308000A0904010001030102000906
:1001400021110100012284000705820308000A0929
:100150000402000103000000092111010001221521
:10016000000705030308000A12011001000000083F
:10017000A032600101000102000112037600750047
:10018000730062005F006B00650079000A037A006B
:10019000690061006E00040309040631FF0974A1BF
:1001A000010975150026FF00950875089102C00524
:1001B000010902A10185010901A10005091901290F
:1001C00005150025017501950581027503950181CD
:1001D000030501093009311581257F7508950281D4
:1001E0000609381581257F35004500750895018180
:1001F00006050C0A38021581257F750895018106D0
:10020000C0C005010980A1018502150126B70019AA
:100210000129B7751095018100C0050C0901A101E4
:1002200085031501269C0219012A9C02751095016F
:100230008100C005010906A101750195080507198E
:10024000E029E715002501810295017508810395D4
:10025000057501050819012905910295017503919C
:100260000395067508150026FF000507190029FFEC
:100270008100C00011241FBECFE5D8E0DEBFCDBF96
:1002800011E0A0E6B0E0E2E2FEE102C005900D92CE
:10029000A836B107D9F723E0A8E6B1E001C01D9266
:1002A000AD30B207E1F70E943A090C940F0F0C949D
:1002B0000000A82FB92F80E090E041E050EA60955F
:1002C00030E009C02D9182279795879510F08427FB
:1002D0009527305EC8F36F5FA8F30895EADF8D932A
:1002E0009D930895CF93CFB7CF93DF93C395839B0F
:1002F000E9F7839B0BC0839B09C0839B07C0839B4B
:1003000005C0839B03C0839B01C08EC06F93C091C7
:10031000E402DD27C551DD4F2F9365E5839B03C0C4
:100320002F916F91E6CF0F931F934F9320E040E101
:100330005F9300B30C7003FB27F93F9350E03BE061
:1003400039C01C7040642F77012F5F5F1EC040686A
:1003500010B31C702F7752501FC0406400B32F772A
:100360000C70D1F15F5F00C023C0406210B32F77E3
:100370001C7091F15F5F00C025C00C7010275150B8
:1003800012F45D5F0000115027952C3F10B3C8F6A2
:100390001C700127015027952C3FC8F6422749932E
:1003A00000B30C7010274F73115027952C3FA8F6FF
:1003B0004695469510B31C7079F00127015027959A
:1003C0002C3F98F66B5A60F3315000B3B0F600C082
:1003D00010E41ABF00271CC03B503195C31BD0400E
:1003E00010E41ABF0881033C21F10B3411F1209174
:1003F000E2021981110F1213EDCF4A81441F093611
:1004000069F10D3211F0013E29F74F7009F0042F08
:100410000093E9023F915F914F911F910F912F91AE
:100420006F91CAB7C6FD62CFDF91CF91CFBFCF9199
:1004300018952091E902222369F31091E702112314
:10044000E9F53430EAF13093E7022093E3021091AA
:10045000E4023BE0311B3093E40232C00091E7023A
:10046000013064F50AE54F7049F43091660134FDBE
:1004700028C000936601CBECD2E027C0423049F09F
:100480003091D60234FD1DC00093D602C7EDD2E0F4
:100490001CC03091010334FD14C000930103C2E07D
:1004A000D3E013C0052710E000C0000002BB1AC053
:1004B000052710E0221F1DC010E021C04AE502C040
:1004C00032ED432FC4E1D0E032E011B31C60939AC7
:1004D00002B311BB5CE020E865E320FF052702BB07
:1004E000279517951C3FF0F66695B8F7B1F720FFF2
:1004F000052702BB279517951C3FD0F62795179522
:1005000017FF052700001C3F02BBB0F629913A9562
:1005100019F7037F1091E802110FC651D04002BBBA
:1005200011F01093E20210E41ABF086011B3137FB8
:10053000402F437F54E05A95F1F702BB11BB42BBF9
:1005400069CF8091EA028823F1F08091D60284FF7E
:100550001AC08091690190916A019817A1F090E00A
:10056000880F991F880F991F880F991F68E0855978
:100570009E4F0E949F0C8091690190E001968F71BF
:10058000992780936901089580919B02811102C08F
:1005900080E0089510929B02A0916A01B0E0CD0125
:1005A00001968F71992720916901281789F0AA0F68
:1005B000BB1FAA0FBB1FAA0FBB1FA559BE4F98E0B8
:1005C000E7E7F2E001900D929A95E1F780936A01D6
:1005D0000E94EB0C8091EA02882321F08091D602E0
:1005E00084FD02C081E008958091690190916A01C3
:1005F0009817C1F390E0880F991F880F991F880FF3
:10060000991F68E085599E4F0E949F0C8091690157
:1006100090E001968F7199278093690181E0089598
:100620008091A80290919D02981729F180939D02D4
:1006300081E02091AD023091AE024091A302509131
:10064000A40242175307C9F03093A4022093A302D7
:100650002091AF023091B0028091A6029091A70242
:1006600082179307C9F03093A7022093A60283E074
:100670008093B202089580E0DCCF2091AF023091E8
:10068000B0024091A6025091A7024217530759F7B2
:10069000882381F381E0ECCF82E0EACF80918F0262
:1006A000909177029817D1F18093770281E0909131
:1006B000900220917902291719F09093790281E034
:1006C0009091910220917A02291719F090937A0261
:1006D00081E09091920220917B02291719F090936A
:1006E0007B0281E09091930220917C02291719F0FE
:1006F00090937C0281E09091940220917D022917D1
:1007000079F090937D029091950280917E029813EA
:1007100090937E0281E080939B02089580E0C7CF92
:100720009091950220917E022913F2CF8111F2CF90
:100730000895CF938091B202882381F081E0809365
:1007400068010E94EB0C8091010384FD0BC0809135
:1007500068018F5F80936801823398F3C0E08C2F2B
:10076000CF910895C091B202C13089F0C230B9F082
:10077000C33021F0C1E08C2FCF91089563E085EA6A
:1007800092E00E94C50C1092B202C1E0E8CF66E090
:100790008CE992E00E94C50C1092B202E0CF63E0B7
:1007A00082EA92E00E94C50C1092B202C1E0D7CF5B
:1007B00090919002891711F1209191028217F1F026
:1007C000309192028317D1F0409193028417B1F0D7
:1007D00050919402851791F060919502681771F01D
:1007E000992371F02223A1F03323A9F04423B1F01F
:1007F0005523B9F06623C1F080E0089581E00895A3
:1008000020E030E0F901E157FD4F818381E0089558
:1008100021E030E0F7CF22E030E0F4CF23E030E019
:10082000F1CF24E030E0EECF25E030E0EBCFEFE891
:10083000F2E09081892B80830895E8EAF2E09081CC
:10084000892B8083089590E09093AE028093AD024F
:100850000895982F907F9039D9F038F0903C91F01E
:10086000903E81F0903B71F00895903221F09038E5
:1008700079F09111F9CF90E092609093B00280935B
:10088000AF02089590E09093B0028093AF02089574
:1008900090E091609093B0028093AF020895E8EAEF
:1008A000F2E010821682158210861782089586E083
:1008B000E0E9F2E0DF011D928A95E9F710928F02DC
:1008C0000895CF92DF92EF92FF920F931F93CF93F1
:1008D000DF9380E090E00E94E70EEC0182E090E080
:1008E0000E94E70E8C0184E090E00E94E70E7C01FC
:1008F00086E090E00E94E70E6C0188E090E00E94A4
:10090000E70E2A9749F0DF91CF911F910F91FF9049
:10091000EF90DF90CF90089502311105A1F72CE1FF
:10092000E216F10481F7ECE6CE16D10461F78C3BB8
:10093000910549F78AE090E00E94DF0E80936D00F8
:100940008BE090E00E94DF0E80936E008CE090E0E0
:100950000E94DF0E80936F008DE090E00E94DF0E1A
:10096000809370008EE090E00E94DF0E8093710013
:100970008FE090E00E94DF0E8093720080E190E0B3
:100980000E94DF0E8093730081E190E00E94DF0EF1
:100990008093740082E190E00E94DF0E80936300F8
:1009A00083E190E00E94DF0E8093640084E190E098
:1009B0000E94DF0E8093650085E190E00E94DF0ECB
:1009C0008093660086E190E00E94DF0E80936700CE
:1009D00087E190E00E94DF0E8093680088E190E05C
:1009E0000E94DF0E8093690089E190E00E94DF0E93
:1009F00080936A008AE190E00E94DF0E80936B0092
:100A00008BE190E00E94DF0E80936C0005E710E020
:100A1000C0E0D0E0CE014C960E94DF0EF80180834A
:100A2000CE014D960E94DF0EF8018183CE014E96D5
:100A30000E94DF0EF8018283CE014F960E94DF0EE6
:100A4000F8018383CE0180960E94DF0EF801848333
:100A5000CE0181960E94DF0EF8018583CE01829639
:100A60000E94DF0EF8018683CE0183960E94DF0E7E
:100A7000F8018783CE0184960E94DF0EF8018087FB
:100A8000CE0185960E94DF0EF80181872A96065FC7
:100A90001F4FC035D10509F0BDCF05EC10E0C0E017
:100AA000D0E0CE0184599F4F0E94DF0EF801808371
:100AB000CE0183599F4F0E94DF0EF8018183CE0142
:100AC00082599F4F0E94DF0EF8018283CE01815927
:100AD0009F4F0E94DF0EF8018383CE0180599F4F04
:100AE0000E94DF0EF8018483CE018F589F4F0E9431
:100AF000DF0EF8018583CE018E589F4F0E94DF0ED6
:100B0000F8018683CE018D589F4F0E94DF0EF801B9
:100B10008783CE018C589F4F0E94DF0EF80180879B
:100B2000CE018B589F4F0E94DF0EF80181872A96D5
:100B3000065F1F4FC035D10509F0B3CF05E111E0C5
:100B4000C0E0D0E0CE0184549F4F0E94DF0EF80138
:100B50008083CE0183549F4F0E94DF0EF801818372
:100B6000CE0182549F4F0E94DF0EF8018283CE0196
:100B700081549F4F0E94DF0EF8018383CE01805481
:100B80009F4F0E94DF0EF8018483CE018F539F4F49
:100B90000E94DF0EF8018583CE018E539F4F0E9485
:100BA000DF0EF8018683CE018D539F4F0E94DF0E2A
:100BB000F8018783CE018C539F4F0E94DF0EF8010E
:100BC0008087CE018B539F4F0E94DF0EF8018187F3
:100BD0002A96065F1F4FC035D10509F0B3CF93CEDB
:100BE000CF93DF93683019F0DF91CF910895EC0136
:100BF00028812F3F09F45AC0209197022111F4CF88
:100C0000FC0188E0AFE6B2E0ED0119928A95E9F7C0
:100C1000808180936F0281818093700282818093B2
:100C20007102838180937202848180937302858133
:100C30008093740286818093750287818093760207
:100C4000C0916F02D09170020E945709CE3FE1E03F
:100C5000DE0780F0CE0102968E3FF1E09F07E8F0BC
:100C6000CE0104968E3F21E0920770F0DF91CF9184
:100C70000C946909E199FECF609171027091720242
:100C8000CE010E94ED0EE6CFE199FECF6091750294
:100C9000709176020E94ED0EE9CFE199FECF60914E
:100CA0007302709174020E94ED0EDACF2981213F08
:100CB00071F0223F09F0A0CF80919702811194CF6B
:100CC00082E080939702DF91CF910C946909809123
:100CD0009702813009F088CF1092970285CF90E07B
:100CE0008032910540F4FC01E65DFF4F0C94D90E73
:100CF0006111D7C08F980895662309F494C08E9A25
:100D00000895662309F491C08D9A0895662309F425
:100D10008EC08C9A0895662309F48BC08B9A08952F
:100D2000662309F48AC08A9A0895662309F483C069
:100D3000889A0895662309F482C0899A08956623E3
:100D400009F47FC0A79A0895662309F482C0A69A81
:100D50000895662309F479C0A29A0895662309F4D8
:100D60007CC0A49A0895662309F46DC0A09A0895E2
:100D7000662309F470C0A59A0895662309F467C034
:100D8000A19A0895662309F46AC0A39A0895662378
:100D900009F467C0BF9A0895662309F472C0BE9A29
:100DA0000895662309F465C0D69A0895662309F468
:100DB00070C0BA9A0895662309F457C0D29A08956C
:100DC000662309F462C0BC9A0895662309F455C0ED
:100DD000D49A0895662309F460C0B89A08956623EA
:100DE00009F441C0D09A0895662309F44CC0BD9A15
:100DF0000895662309F43FC0D59A0895662309F43F
:100E00004AC0B99A0895662391F1D19A089566234C
:100E1000F1F1BB9A0895662391F1D39A0895662360
:100E2000F1F1D79A08958E9808958D9808958C9829
:100E300008958B980895889808958A9808958998B8
:100E40000895A7980895A0980895A2980895A19844
:100E50000895A6980895A5980895A4980895A3982C
:100E60000895BF980895D0980895D2980895D1987C
:100E70000895D6980895D5980895D4980895D3984C
:100E80000895BE980895BD980895BC980895BB989C
:100E90000895BA980895B9980895B8980895D7987C
:100EA00008958F9A089590E08032910540F4FC01F6
:100EB000E65BFF4F0C94D90E6111D7C09798089547
:100EC000662309F494C0969A0895662309F491C0A4
:100ED000959A0895662309F48EC0949A089566231E
:100EE00009F48BC0939A0895662309F48AC0929AF4
:100EF0000895662309F483C0909A0895662309F43F
:100F000082C0919A0895662309F47FC0AF9A08952C
:100F1000662309F482C0AE9A0895662309F479C065
:100F2000AA9A0895662309F47CC0AC9A08956623B2
:100F300009F46DC0A89A0895662309F470C0AD9AAB
:100F40000895662309F467C0A99A0895662309F4F1
:100F50006AC0AB9A0895662309F467C0C79A0895DA
:100F6000662309F472C0C69A0895662309F465C021
:100F7000DE9A0895662309F470C0C29A0895662324
:100F800009F457C0DA9A0895662309F462C0C49A36
:100F90000895662309F455C0DC9A0895662309F480
:100FA00060C0C09A0895662309F441C0D89A089594
:100FB000662309F44CC0C59A0895662309F43FC01E
:100FC000DD9A0895662309F44AC0C19A08956623FC
:100FD00091F1D99A08956623F1F1C39A0895662391
:100FE00091F1DB9A08956623F1F1DF9A08959698BE
:100FF00008959598089594980895939808959098D1
:1010000008959298089591980895AF980895A89892
:101010000895AA980895A9980895AE980895AD984E
:101020000895AC980895AB980895C7980895D898F6
:101030000895DA980895D9980895DE980895DD986E
:101040000895DC980895DB980895C6980895C5988A
:101050000895C4980895C3980895C2980895C198B2
:101060000895C0980895DF980895979A089590E09C
:101070008032910510F080E00895FC01E659FF4FA1
:101080000C94D90E80B38074089580B38072089553
:1010900080B38071089580B38870089580B38470A0
:1010A000089580B38270089580B38170089583B3EA
:1010B0008078089583B38074089583B3807208950F
:1010C00083B38071089583B38870089583B3847067
:1010D000089583B38270089583B38170089586B3B1
:1010E0008078089586B38074089586B380720895D9
:1010F00086B38071089586B38870089586B384702E
:10110000089586B38270089586B38170089589B377
:101110008078089589B38074089589B380720895A2
:1011200089B38071089589B38870089589B38470F4
:10113000089589B38270089589B38170089580B34A
:1011400080780895843031F09091BF02892B80938C
:10115000BF02089590917702992389F190919002AE
:10116000953391F320919102253371F330919202DE
:10117000353351F340919302453331F3509194024A
:10118000553311F3609195026533F1F2992309F417
:1011900047C0222309F44AC0332309F450C0442332
:1011A00009F453C0552309F453C06111CDCF25E094
:1011B00030E0F901E157FD4F95E39183C5CF909160
:1011C0009002993209F220919102293209F4BCCFA0
:1011D00030919202393209F4B7CF409193024932EB
:1011E00009F4B2CF50919402593209F4ADCF609115
:1011F0009502693209F4A8CF9923A9F02223C9F0F6
:101200003323D1F04423F1F0552329F161119CCF10
:1012100025E030E0F901E157FD4F99E2918394CF49
:1012200020E030E0C6CF20E030E0F4CF21E030E035
:10123000C0CF21E030E0EECF22E030E0EBCF22E083
:1012400030E0B7CF23E030E0E5CF23E030E0B1CFAE
:1012500024E030E0AECF24E030E0DCCF8091BF026C
:101260009091C202981721F08093C20281E0089504
:1012700080E008950C94150B1092C502E0E0F0E0B8
:10128000ED59FF4F60E080810E946F06E091C5023A
:10129000F0E0ED59FF4F61E080810E945307E0913B
:1012A000C502EF5FE093C502EA3048F3089510925B
:1012B000C502E0E0F0E0E05AFF4F61E080810E946B
:1012C0005307E091C502EF5FE093C502E33090F36E
:1012D00008951092C502E0E0F0E0E05AFF4F60E0B0
:1012E00080810E945307E091C502EF5FE093C50241
:1012F000E33090F30895FF920F931F93CF93DF9302
:1013000080EF8093C7021092C40280E0C1E0D0E079
:1013100016E00FE0FF24F3949E0102C0220F331F5A
:101320008A95E2F7C90127BB809588BB1092C60257
:10133000E0E01AC08091C40290E0DC01AA0FBB1F5C
:10134000880F991F880F991F880F991FA80FB91F21
:10135000AB5EBE4FAE0FB11D8C9187778C93EF5F64
:10136000E093C602EA3050F5F0E0ED59FF4F80817E
:101370000E943708E091C6028111DCCF8091C4023F
:1013800090E0DC01AA0FBB1F880F991F880F991FDF
:10139000880F991FA80FB91FAB5EBE4FAE0FB11DCE
:1013A0008C9188688C9310936C028E3EC1F60093EA
:1013B000C702EF5FE093C602EA30B0F217BAF8BA9C
:1013C0008091C4028F5F8093C402883008F4A4CF58
:1013D0000E9457040E944F041092BF021092C40250
:1013E00040E01092C60230E01DC0203B09F4D6C098
:1013F00008F491C0203D09F4C5C0203F09F4B6C0EF
:10140000203C59F48B589F4FE80FF91F80810E94B0
:1014100023044091C4023091C6023F5F3093C6025C
:101420003A30B8F5842F90E0E32FF0E0BC01660F6E
:10143000771F880F991F880F991F880F991F860F94
:10144000971FDC01AB5EBE4FAE0FBF1F5C912091BA
:10145000C70225232F3009F4BAC038F62B3009F41F
:101460006CC008F045C0293009F474C02A30A9F6D0
:10147000AC014B535F4FE40FF51F80810E941704AE
:101480004091C4023091C6023F5F3093C6023A30A9
:1014900048F24F5F4093C402483008F4A2CF0E9444
:1014A0002E09882319F083E080936B020E944E037B
:1014B000882319F083E080936B020E94100381114E
:1014C00096C080916C02863009F499C0813009F48D
:1014D0009EC090916B02811196C0992319F0915092
:1014E00090936B02DF91CF911F910F91FF90089520
:1014F0002C3009F45FC02D3009F08FCFAC014B5375
:101500005F4FE40FF51F80810E9429044091C402BF
:101510003091C60282CF203909F466C0203A09F022
:101520007CCF8B589F4FE80FF91F80810E941704D2
:101530004091C4023091C60270CFAC014B535F4F53
:10154000E40FF51F80810E941D044091C402309178
:10155000C60263CF8B539F4FE80FF91F80810E9413
:10156000D8034091C4023091C60257CF8B589F4F89
:10157000E80FF91F80810E94A2084091C4023091B7
:10158000C6024BCF8B589F4FE80FF91F80810E94F6
:1015900029044091C4023091C6023FCF8B589F4F1F
:1015A000E80FF91F80810E941D044091C402309110
:1015B000C60233CFAC014B535F4FE40FF51F808160
:1015C0000E9423044091C4023091C60226CF9C01A0
:1015D0002B533F4FE20FF31F80810E94A2084091DE
:1015E000C4023091C60219CF8B589F4FB5CF83E00C
:1015F00080936B0280916C02863009F067CF9091E6
:101600006B02913059F0815080936C0266CF0E943A
:10161000C4020E94990380916C025BCF0E94C402B5
:101620000E94990380916C0251CF0E94930B0E94FB
:101630003C0917BA81E088BBC1E0D0E00E943C0CB5
:101640001092C502E0E0F0E0E05AFF4F61E08081D7
:101650000E946F06E091C502F0E0E05AFF4F61E0A2
:1016600080810E945307E091C502EF5FE093C502BD
:10167000E33048F381E0809397020E9457040E9470
:101680004F040E9461042FEF89E698E121508040C9
:101690009040E1F700C000000E94C4020E94EB0CE1
:1016A0000E94430C80919702823041F28130B1F761
:1016B0008091C302882391F18091EA02882371F31B
:1016C0008091D60284FFEACF80916B028111E6CF30
:1016D0001092C5020BC060E080810E945307809188
:1016E000C5028F5F8093C5028330C0F6282F30E09B
:1016F000AE0102C0440F551F8A95E2F78091960211
:1017000090E084239523F901E05AFF4F48175907C9
:1017100011F761E080810E945307E1CF0E947B09AD
:101720000E94A102C9CF89B78E7F89BF89B78B7FFD
:1017300089BF89B78F7B89BF8D98959A0E94C60E05
:101740008B9A8FEFA895AFE9BFE01197F1F700C032
:1017500000008150B9F78B98789488E0E7E8F2E0D0
:10176000DF01382F1D923A95E9F7E7E7F2E0DF0154
:10177000382F1D923A95E9F79DE0EFE8F2E0DF019E
:101780001D929A95E9F791E0909397022CE0E3EB94
:10179000F2E0DF01322F1D923A95E9F7ECE9F2E031
:1017A000DF011D922A95E9F72BE0E8EAF2E0DF017C
:1017B0001D922A95E9F790939C0292E09093A202E1
:1017C00093E09093A502EFE7F2E0DF01382F1D923E
:1017D0003A95E9F7EFE6F2E0DF011D928A95E9F725
:1017E0001092BF021092C2020895FC019093CA02A7
:1017F0008093C90290819076903211F080E0089534
:101800008181813069F0823099F08A3021F189300C
:10181000A9F7828193818115924091F08FEF08950D
:1018200087E792E09093E6028093E50288E00895CE
:101830008DE692E09093E6028093E50281E00895C0
:1018400084819581892B51F78091960280688093DD
:1018500096028FEF0895838180936D0280E0089552
:10186000FC019091960297FD02C08FEF0895808150
:101870008093960281E008951092C1021092C002F6
:101880001092C30208950895FC019381923079F17A
:1018900020F1913291F09232F1F48481958181307E
:1018A0009105A9F1E0F10297B1F48AE991E09093F2
:1018B000E6028093E50285E1089582818130F9F0A6
:1018C000B0F1823041F488E591E09093E602809394
:1018D000E50289E0089580E008959130E1F788E617
:1018E00091E09093E6028093E50282E1089584E11D
:1018F00091E09093E6028093E50284E508958FE3FA
:1019000091E09093E6028093E50289E008958FEAE2
:1019100091E09093E6028093E50284E8089583E3E2
:1019200092E09093E6028093E50280E4089586E2D7
:1019300091E09093E6028093E50289E00895CF93C9
:101940002091D6022E31C1F02091D60224FD16C07E
:101950002AE52093D602FC01A8EDB2E0862F9191F2
:101960009D938150E1F7C62F88ED92E00E946E01B1
:1019700064E06C0F6093D602CF9108953091D70246
:1019800028E823272093D702E6CFCF932091D602D1
:101990002E31C1F02091010324FD16C02AE52093C9
:1019A0000103FC01A3E0B3E0862F91919D93815048
:1019B000E1F7C62F83E093E00E946E0164E06C0FB4
:1019C00060930103CF9108953091020328E8232703
:1019D00020930203E6CFCF93DF936091E702635039
:1019E00067FD17C02091E4028CE090E0821B910912
:1019F000EC01C551DD4F8091E302803108F494C0C1
:101A00008D3209F495C080916E0287FDEDC0109271
:101A1000E7028091660184FF61C0609165016F3FBC
:101A200009F45CC0693008F46BC0685060936501CC
:101A30009091CB0288E889278093CB02CCE068E0C4
:101A4000A091E502B091E60280916E0286FF8FC000
:101A5000FD0184918093CC0231968FEF860F09F4BB
:101A60002DC0E491E093CD02FD013296623031F158
:101A7000E491E093CE02FD0133966330F9F0E491F6
:101A8000E093CF02FD0134966430C1F0E491E0931D
:101A9000D002FD013596653089F0E491E093D102E2
:101AA000FD013696663051F0E491E093D202FD01DB
:101AB0003796673019F0E491E093D30290E00196F5
:101AC000A80FB91FB093E602A093E5028CEC92E058
:101AD0000E946E01CC3021F5C093660194E180B381
:101AE0008C7059F49150D9F71092E8021092E202EA
:101AF0008AE58093D60280930103DF91CF91089508
:101B0000109265019091CB0288E889278093CB02DF
:101B1000611196C060E08CEC92E00E946E01C4E01E
:101B20008FEF80936501D8CFCE010E94F0056FCF73
:101B3000683009F06CCF83EC8093CB028AE5809308
:101B4000660110926E029881892F807609F45BC03D
:101B5000CE010E94F50B8F3F09F069C0988197FD77
:101B60009CC090E890936E028093650150CF8C9159
:101B70008093CC028FEF860F09F4A0CF11969C9131
:101B800011979093CD02623009F498CF12969C91F0
:101B900012979093CE02633009F490CF13969C91E4
:101BA00013979093CF02643009F488CF14969C91D8
:101BB00014979093D002653009F480CF15969C91CC
:101BC00015979093D102663009F478CF16969C91C0
:101BD00016979093D202673009F470CF17969C91B4
:101BE00017979093D3026ACFCE010E94300C8F3F9B
:101BF00031F0882309F40BCF1092650108CF8EE1F4
:101C00008093660104CF2A813C811092D40289819D
:101C1000811119C09F71923009F441C01092D50210
:101C200024ED32E082E03093E6022093E5029F81CA
:101C300091119ACF9E81981708F096CF892F94CF53
:101C4000C4E0C60FFDCE982F9D7F913099F085306E
:101C500009F444C0863009F447C08830D9F189308E
:101C600071F18A3041F18B3009F450C024ED32E03B
:101C700080E0D9CF2111FACF3138C1F7813009F492
:101C800043C08EE18093D6028BE48093D702809389
:101C9000020324ED32E080E0C6CF8E8162CF31387E
:101CA00009F0BCCF9091D60281E09E3109F080E02E
:101CB0008093D402B3CF24ED32E081E0B4CF2093FF
:101CC000EA028AE58093D6028093010324ED32E094
:101CD00080E0A9CF2AEE32E081E0A5CF2093E80290
:101CE00024ED32E080E09FCF8B81813099F182300A
:101CF00049F18330E9F0813299F0823269F080E075
:101D000090E490936E0227CF8AE5BCCF8BE480935A
:101D1000D70280930203D5CFCE010E94440CF0CFAE
:101D200086E291E09093E6028093E50289E0E8CFB5
:101D3000211118C086E991E09093E6028093E502B4
:101D400084E0DECF84E191E09093E6028093E502A7
:101D500084E5D6CF88E691E09093E6028093E50291
:101D600082E1CECF213051F0223049F68AE791E06E
:101D70009093E6028093E50282E1C2CF8CE891E085
:101D80009093E6028093E5028AE0BACF85B782603D
:101D900085BF8BB780648BBFA6EDB2E08BE4119654
:101DA0008C931197E1E0F3E081838AE58C93808343
:101DB0000895EE0FFF1F0590F491E02D0994E1992D
:101DC000FECF9FBB8EBBE09A99278DB30895A8E103
:101DD000B0E042E050E00C94F40E0E94020F272F76
:101DE0000C94030FDC01CB01FC01E199FECF06C08E
:101DF000FFBBEEBBE09A31960DB20D9241505040C0
:101E0000B8F70895262FE199FECF9FBB8EBB2DBB5F
:101E10000FB6F894E29AE19A0FBE01960895F894ED
:021E2000FFCFF2
:101E220018191C0102030405060717161508090AEA
:101E32000B0C0D0E0F141A0815180C121301002B9F
:101E42003900171C30352F0200041607090D0E0F3A
:101E52003310310000000A0B000034042C1D1B0655
:101E62001910363700202800000005110000384004
:101E72000004000022232E002D002A1E1F202124F0
:101E82002526270000005200000000000001002B60
:101E920039000000000000020050514F0000000015
:101EA2000010000000000000000000042C5347490D
:101EB2004600EAE90020280000000000000000407F
:101EC200003500003E3F450044004C3A3B3C3D405B
:101ED2004142430000101110101010101022661120
:101EE20011001010101010220011111110101010FA
:101EF2001022100000001010000010221111111108
:101F02001110151500221100000010100066102299
:101F1200007100001111110011661111111111113E
:081F22001111110000FF5A002B
:00000001FF
