:100000000C9468040C9485040C9485040C94850469
:100010000C9485040C9485040C9485040C9485043C
:100020000C9485040C9485040C945E0E0C94870F3C
:100030000C9485040C9485040C9485040C9485041C
:100040000C9485040C9485040C9485040C9485040C
:100050000C9485040C9485040C9485040C948504FC
:100060000C9485040C9485040C9485040C948504EC
:100070000C9485040C9485040C9485040C948504DC
:100080000C9485040C9485040C9485040C948504CC
:100090000C9485040C9485040C9485040C948504BC
:1000A0000C9485040C9485040C948504330943094D
:1000B0001F094B0929093B0915094F092E093F0959
:1000C0001A0947092409370910090B09F70801091A
:1000D000ED080609F208FC08E808E308DF08E20971
:1000E000F209CE09FA09D809EA09C409FE09DD09AD
:1000F000EE09C909F609D309E609BF09BA09A60933
:10010000B0099C09B509A109AB09970992098E09A3
:10011000840A810A7E0A7B0A780A750A720A6F0AC3
:100120006C0A690A660A630A600A5D0A5A0A570A73
:10013000540A510A4E0A4B0A480A450A420A3F0A23
:10014000870A01C10601C10601C10601C0060000FF
:100150001C037A00690061006E005F006B0065009F
:10016000790062006F006100720064000C037A0085
:10017000690061006E0031000403090409025B009C
:10018000030100A03209040000010301010009215C
:100190001101000122400007058103080001090444
:1001A0000100010301020009211101000122840064
:1001B0000705820308000109040200020300000091
:1001C0000921110100012222000705830308000113
:1001D000070504030800010631FF0974A101097530
:1001E000150026FF0095087508810209761500267E
:1001F000FF00950875089102C005010902A101855B
:10020000010901A10005091901290515002501753C
:1002100001950581027503950181030501093009E6
:10022000311581257F7508950281060938158125CC
:100230007F35004500750895018106050C0A3802D6
:100240001581257F750895018106C0C005010980CB
:10025000A1018502150126B700190129B77510956E
:10026000018100C0050C0901A10185031501269C2F
:100270000219012A9C02751095018100C00501092F
:1002800006A10175019508050719E029E715002564
:10029000018102950175088103950575010508190D
:1002A00001290591029501750391039506750815BD
:1002B0000026FF000507190029FF8100C012010078
:1002C0000200000008C432600100020102000100C7
:1002D000000001010102030404050708090A0C0DCE
:1002E0000F1112141617191B1D1F2122242628294D
:1002F0002B2D2E3031333435363738393A3A3B3BB3
:100300003C3C3C3C3C3C3D3D3E3E3F404142434406
:100310004647494A4C4D4F5152545658595B5D5FC0
:100320006062646567696A6B6D6E6F707172737419
:100330007475757676767676767676767676767661
:100340007676767676767677777777777777777744
:100350007777777777777777787878787878787825
:100360007878787878787878787878787879797A09
:100370007A7B7B7C7D7E7F7F808283848586878974
:100380008A8B8C8E8F9091929495969798999A9B40
:100390009C9D9D9E9F9FA0A0A0A1A1A1A1A1A1A263
:1003A000A2A3A3A4A5A6A7A9AAACADAFB0B2B4B6A8
:1003B000B8BABCBEC0C2C4C6C8CACCCED0D2D4D6CD
:1003C000D8D9DBDCDEDFE0E1E2E3E3E4E4E5E5E528
:1003D000E5E4E4E3E2E0DFDDDBD8D6D3D0CDCAC686
:1003E000C2BFBBB7B3AFABA6A29E9A95918D8985CC
:1003F000817D7A7673706D6A676563615F5E5C5B51
:100400005B5A5A5A5A595958575655545351504E87
:100410004C4A484644423F3D3A383633302E2B2929
:100420002724221F1D1B1917151312100F0D0C0B5B
:100430000A090908080808080808080909090A0A31
:100440000A0B0B0C0D0D0E0E0F10101112131314BE
:10045000151516171818191A1A1B1B1C1D1D1E1E00
:100460001E1F1F1F20202020202020202020202091
:100470001F1F1F1F1F1E1E1E1E1D1D1D1C1C1C1BA3
:100480001B1A1A1A191919181818171717161616E9
:100490001615151515151414141414141414141415
:1004A0001413131313121212111110100F0F0E0E3A
:1004B0000D0D0C0B0B0A0A090808070706060504B0
:1004C00004030303020201010101000000000039DE
:1004D00039393939383838373736363534343332B4
:1004E0003231302F2E2D2C2B2B2A2928272625245C
:1004F0002323222120201F1E1E1D1D1C1C1C1B1B14
:100500001B1B1B1B1B1B1B1A1A1A1919191818174E
:10051000161615141413121111100F0E0D0D0C0BCD
:100520000A0908080706060504040303020201017C
:1005300001000000000000000000000000000000BA
:1005400000000000000000000000000000000000AB
:10055000000000000000000000000000000000009B
:100560000000000000000000000000000101020384
:1005700004050607080A0B0D0F11131517191B1D8B
:100580001F212426282A2C2E31333537383A3C3D7A
:100590003F40424344454646474748484848494902
:1005A0004A4B4C4E4F515356585B5D6063666A6DC3
:1005B0007074787B7F83868A8E9195989C9FA2A584
:1005C000A8ABAEB0B3B5B7B9BBBCBDBEBFC0C0C0B1
:1005D000C0C0C0C0C0C0BFBFBFBFBEBEBEBEBDBD2D
:1005E000BDBCBCBBBBBBBABAB9B9B8B8B8B7B7B673
:1005F000B6B6B5B5B4B4B4B4B3B3B3B3B3B2B2B2C0
:10060000B2B2B2B2B2B2B2B2B2B2B2B3B3B3B3B3C5
:10061000B3B4B4B4B4B4B5B5B5B5B6B6B6B6B7B789
:10062000B7B7B7B8B8B8B8B9B9B9B9B9B9B9BABA42
:10063000BABABABABABABABABABBBBBBBCBDBDBE0B
:10064000BFC0C1C2C4C5C6C7C9CACCCDCFD0D2D421
:10065000D5D7D8DADBDDDEE0E1E2E3E5E6E7E8E99D
:10066000EAEAEBECECECEDEDEDEDEDEDECECEBEACC
:10067000E9E8E7E5E4E2E1DFDDDBD9D7D4D2D0CEAB
:10068000CBC9C6C4C2BFBDBBB8B6B4B2B0AEACAACB
:10069000A9A7A6A5A3A2A1A1A0A09F9F9F9F9F9E3F
:1006A0009D9C9B9A99979593918F8D8A888582803E
:1006B0007D7A7773706D6A6764615E5B58555250DE
:1006C0004D4B48464442413F3E3C3B3B3A3939F36F
:1006D000F3F3F3F3F3F3F3F3F2F2F2F2F2F2F2F1F3
:1006E000F1F1F1F1F0F0F0F0F0EFEFEFEFEFEEEE0F
:1006F000EEEEEEEDEDEDEDEDEDEDECECECECECEC2D
:10070000ECECECECECECECEBEBEBEBEAEAE9E9E83B
:10071000E8E7E6E6E5E4E4E3E2E1E0E0DFDEDDDCB5
:10072000DCDBDAD9D9D8D7D7D6D6D5D5D4D4D3D35C
:10073000D3D2D2D2D2D2D2D2D1D1D0CFCECCCBC9B9
:10074000C7C5C3C0BEBBB9B6B3B0ADA9A6A3A09C74
:10075000999693908C898683807E7B79767472706B
:100760006E6D6B6A69686867676767676666656507
:10077000646362615F5E5D5B5A58565553514F4DDD
:100780004B4947454342403E3C3A38373533323097
:100790002F2E2D2C2B2A29282827272727272727C4
:1007A00026262625252423232221201F1E1D1C1B2F
:1007B0001A1918171614131211100F0E0D0B0A091F
:1007C00008080706050404030302020201010101EF
:1007D00001010101010202020203030304040405F2
:1007E0000506060707080809090A0A0B0B0C0C0D79
:1007F0000D0E0E0F0F0F10101011111111121212F9
:1008000012121212121213131415151617181A1B9E
:100810001C1E1F2122242628292B2D2F313335364B
:10082000383A3C3E3F414244454748494A4B4C4D8B
:100830004D4E4E4F4F4F4F4F505152535557595B9E
:100840005D606366696D7174787C8084898D919632
:100850009A9EA2A7ABAFB3B7BABEC2C5C8CBCED023
:10086000D2D4D6D8D9DADBDCDCDCDCDCDCDCDDDDE8
:10087000DDDEDEDFDFE0E0E1E2E2E3E4E4E5E6E75F
:10088000E8E9E9EAEBECEDEDEEEFF0F0F1F2F2F38E
:10089000F4F4F5F5F5F6F6F6F7F7F7F7F7F7F7F7F7
:1008A000F7F7F7F7F7F7F7F7F6F6F6F6F6F6F6F6E0
:1008B000F6F6F5F5F5F5F5F5F5F5F4F4F4F4F4F4EC
:1008C000F4F4F4F4F3F3F3F3F3F3F3F3F3F3F300E7
:1008D00011241FBECFEFDAE0DEBFCDBF11E0A0E0F4
:1008E000B1E0EEE5F7E202C005900D92A43FB1073A
:1008F000D9F722E0A4EFB1E001C01D92A336B20700
:10090000E1F70E94220B0C94AD130C940000AF92FF
:10091000BF92CF92DF92EF92FF920F931F93CF93EC
:10092000DF9380E090E00E9484135C0182E090E01D
:100930000E9484138C0184E090E00E948413EC01F7
:1009400086E090E00E9484136C0188E090E00E94B1
:1009500084137C018AE0A816B10409F4B6C10F30F3
:100960001105C1F06D9709F46CC0E3E6CE16D10411
:1009700009F4CBC0F9EAEF16F10409F438C1DF91AC
:10098000CF911F910F91FF90EF90DF90CF90BF908C
:10099000AF9008958FE090E00E947C138093E00177
:1009A00080E190E00E947C138093E10181E190E07E
:1009B0000E947C138093E20182E190E00E947C130C
:1009C0008093E30183E190E00E947C138093E40133
:1009D00084E190E00E947C138093E50185E190E042
:1009E0000E947C138093E60186E190E00E947C13D4
:1009F0008093E70187E190E00E947C138093E801F7
:100A000088E190E00E947C138093E90189E190E005
:100A10000E947C138093EA018AE190E00E947C139B
:100A20008093EB018BE190E00E947C138093EC01BA
:100A30008CE190E00E947C138093ED016D9709F0AA
:100A400094CF0AE911E0C0E0D0E0CE014D960E94BB
:100A50007C13F8018083CE014E960E947C13F8012E
:100A60008183CE014F960E947C13F8018283CE01D0
:100A700080960E947C13F8018383CE0181960E94A8
:100A80007C13F8018483CE0182960E947C13F801C6
:100A90008583CE0183960E947C13F8018683CE0164
:100AA00084960E947C13F8018783CE0185960E946C
:100AB0007C13F8018087CE0186960E947C13F80192
:100AC0008187CE0187960E947C13F8018287CE0130
:100AD00088960E947C13F8018387CE0189960E9434
:100AE0007C13F8018487CE018A960E947C13F8015A
:100AF00085872E96025F1F4FC634D10509F0A5CF1A
:100B0000E3E6CE16D10409F035CF04E511E0C0E0EC
:100B1000D0E0CE018D599F4F0E947C13F801808355
:100B2000CE018C599F4F0E947C13F8018183CE0126
:100B30008B599F4F0E947C13F8018283CE018A5902
:100B40009F4F0E947C13F8018383CE0189599F4FE8
:100B50000E947C13F8018483CE0188599F4F0E9424
:100B60007C13F8018583CE0187599F4F0E947C1327
:100B7000F8018683CE0186599F4F0E947C13F801AD
:100B80008783CE0185599F4F0E947C13F80180878F
:100B9000CE0184599F4F0E947C13F8018187CE01BA
:100BA00083599F4F0E947C13F8018287CE0182599E
:100BB0009F4F0E947C13F8018387CE0181599F4F7C
:100BC0000E947C13F8018487CE0180599F4F0E94B8
:100BD0007C13F80185872E96025F1F4FC634D1051E
:100BE00009F097CFF9EAEF16F10409F0C8CE0EE04C
:100BF00011E0C0E0D0E0CE0187559F4F0E947C13EA
:100C0000F8018083CE0186559F4F0E947C13F80126
:100C10008183CE0185559F4F0E947C13F80182830A
:100C2000CE0184559F4F0E947C13F8018383CE012F
:100C300083559F4F0E947C13F8018483CE01825517
:100C40009F4F0E947C13F8018583CE0181559F4FF1
:100C50000E947C13F8018683CE0180559F4F0E942D
:100C60007C13F8018783CE018F549F4F0E947C1321
:100C7000F8018087CE018E549F4F0E947C13F801AB
:100C80008187CE018D549F4F0E947C13F80182878B
:100C9000CE018C549F4F0E947C13F8018387CE01B4
:100CA0008B549F4F0E947C13F8018487CE018A5495
:100CB0009F4F0E947C13F80185872E96025F1F4F7D
:100CC000C634D10509F097CF5ACE8AE090E00E9451
:100CD0007C138093EE018BE090E00E947C13809364
:100CE000EF018CE090E00E947C138093F0018DE096
:100CF00090E00E947C138093F1018EE090E00E94CE
:100D00007C138093F2012BCECF93DF938091260248
:100D100081111BC0C091F901D091FA01CF3F21EFA1
:100D2000D207B1F0CF3F82EFD80709F44AC08091D3
:100D300021028823B9F088E0E9EFF1E0DF011D929C
:100D40008A95E9F781E080932602DF91CF9108959B
:100D500080912102813009F43EC08111ECCF0E94C4
:100D60005A0B1DC00E945A0BCE3FA3E0DA0748F48D
:100D7000F999FECF6091FB017091FC01CE010E94B8
:100D80008A13CE0102968E3FB3E09B0740F4F99997
:100D9000FECF6091FD017091FE010E948A13CE0189
:100DA00004968E3F23E0920718F00E946C0BC3CF8D
:100DB000F999FECF6091FF01709100020E948A13A1
:100DC000F4CF809121028111B6CF0E946C0B82E09A
:100DD00080932102B0CF10922102ADCFCF93DF9349
:100DE0008CE0EEE3F2E0DF01C82F1D92CA95E9F72F
:100DF000E7E2F2E0DF011D928A95E9F7A3E3B2E0B2
:100E00008BE0ED0119928A95E9F781E0808392E009
:100E1000968393E0918719968C93DF91CF910895F3
:100E200088E0E1E1F2E0DF01982F1D929A95E9F761
:100E3000E1E0F2E0DF011D928A95E9F7E9E1F2E0F5
:100E40008DE0DF011D928A95E9F781E08087838735
:100E50008DE78187089588E0E9E0F2E0DF01982FCF
:100E60001D929A95E9F7E9EFF1E0DF011D928A956D
:100E7000E9F7089590E0909339028093380208953D
:100E8000982F907F9039D9F038F0903C91F0903EB7
:100E900081F0903B71F00895903221F0903879F014
:100EA0009111F9CF90E0926090933B0280933A02C7
:100EB000089590E090933B0280933A02089590E069
:100EC000916090933B0280933A020895E3E3F2E04D
:100ED0009081892B80830895E3E3F2E010821682EB
:100EE000158210861782089586E0EAE1F2E0DF01BC
:100EF0001D928A95E9F710921902089590911A02AD
:100F0000891711F120911B028217F1F030911C0218
:100F10008317D1F040911D028417B1F050911E0249
:100F2000851791F060911F02681771F0992371F095
:100F30002223A1F03323A9F04423B1F05523B9F0C3
:100F40006623C1F080E0089581E0089520E030E05C
:100F5000F901E75EFD4F818381E0089521E030E0F3
:100F6000F7CF22E030E0F4CF23E030E0F1CF24E00F
:100F700030E0EECF25E030E0EBCFE9E1F2E0908128
:100F8000892B80830895809119029091010298170E
:100F9000D1F18093010281E090911A022091030225
:100FA000291719F09093030281E090911B02209180
:100FB0000402291719F09093040281E090911C0219
:100FC00020910502291719F09093050281E0909174
:100FD0001D0220910602291719F09093060281E064
:100FE00090911E0220910702291779F09093070231
:100FF00090911F028091080298139093080281E05B
:1010000080932502089580E0C7CF90911F02209120
:1010100008022913F2CF8111F2CF089580912502A1
:10102000811102C081E008951092250222E348E078
:1010300061E072E081E00C94290E8091330290917E
:101040002802981729F18093280281E02091380224
:101050003091390240912E0250912F0242175307CE
:10106000C9F030932F0220932E0220913A02309142
:101070003B02809131029091320282179307C9F0AE
:10108000309332022093310283E080933D02089531
:1010900080E0DCCF20913A0230913B024091310256
:1010A000509132024217530759F7882381F381E0A8
:1010B000ECCF82E0EACFCF93DF9380913D02837043
:1010C00080933D02811104C081E0DF91CF910895AA
:1010D0000E94260E8823C1F38FB7F894C091E400D4
:1010E000CE5C92E09093E9009091E80095FD14C0E9
:1010F000D2E00CC08091E400C81731F38FB7F894A8
:10110000D093E9009091E80095FD06C08FBF0E9442
:10111000260E8111EFCFD8CF90913D02923099F1F8
:10112000933011F19130D1F410923D029091270249
:101130009093F100909128029093F10090912902F0
:101140009093F10090912A029093F10090912B02DC
:101150009093F10090912C029093F1009AE3909378
:10116000E8008FBF80E0B1CF10923D029091300235
:101170009093F100909131029093F100909132029E
:101180009093F100EBCF10923D0290912D0290933D
:10119000F10090912E029093F10090912F02909384
:1011A000F100DCCF80E885BF85BF089590E08931EC
:1011B000910540F4FC01EA5AFF4F0C94761361113B
:1011C000A2C06E980895662309F46DC0559A0895DB
:1011D000662309F46AC0549A0895662309F46DC021
:1011E000859A0895662309F464C0819A0895662358
:1011F00009F467C0879A0895662309F458C0809A55
:101200000895662309F45BC0869A0895662309F45D
:1012100052C0849A0895662309F455C0269A089509
:10122000662309F460C0259A0895662309F453C023
:10123000519A0895662309F45EC03F9A0895662383
:1012400009F445C0229A0895662309F450C0579ABC
:101250000895662309F443C0279A0895662309F484
:101260004EC0539A0895662381F1209A089566230B
:10127000E1F1249A0895662381F1509A0895662336
:10128000E1F13E9A0895662321F1219A089566239B
:1012900081F1569A0895662321F1239A08956623D1
:1012A00081F1529A08955598089554980895809818
:1012B000089581980895849808958598089586984A
:1012C000089587980895269808952098089522985B
:1012D0000895219808955198089550980895279851
:1012E0000895239808952598089524980895579867
:1012F0000895569808953F9808953E9808955398F4
:101300000895529808956E9A089590E08931910554
:1013100040F4FC01E159FF4F0C9476136111A2C017
:1013200076980895662309F46DC05D9A0895662342
:1013300009F46AC05C9A0895662309F46DC08D9A19
:101340000895662309F464C0899A0895662309F410
:1013500067C08F9A0895662309F458C0889A089543
:10136000662309F45BC08E9A0895662309F452C07F
:101370008C9A0895662309F455C02E9A0895662321
:1013800009F460C02D9A0895662309F453C0599A50
:101390000895662309F45EC0479A0895662309F408
:1013A00045C02A9A0895662309F450C05F9A0895AB
:1013B000662309F443C02F9A0895662309F44EC0AA
:1013C0005B9A0895662381F1289A08956623E1F1D6
:1013D0002C9A0895662381F1589A08956623E1F1C5
:1013E000469A0895662321F1299A0895662381F18A
:1013F0005E9A0895662321F12B9A0895662381F160
:101400005A9A08955D9808955C980895889808956B
:10141000899808958C9808958D9808958E980895C8
:101420008F9808952E980895289808952A980895D9
:101430002998089559980895589808952F980895CF
:101440002B9808952D9808952C9808955F980895E5
:101450005E98089547980895469808955B98089572
:101460005A980895769A089590E08931910510F080
:1014700080E00895FC01E857FF4F0C94761389B182
:101480008072089589B1807108958FB18170089537
:101490008FB1827008958FB1807108958FB180727D
:1014A00008958FB1807408958FB18078089583B1C5
:1014B0008074089583B18072089583B18071089516
:1014C00089B18078089589B18074089586B1807853
:1014D000089586B18074089589B18870089589B19E
:1014E0008470089589B18270089589B181700895DA
:1014F00083B18078089583B18870089583B1847032
:10150000089583B18270089583B1817008958CB17C
:1015100080740895843031F090914B02892B809330
:101520004B02089590910102992389F190911A023A
:10153000953391F320911B02253371F330911C02F6
:10154000353351F340911D02453331F350911E0262
:10155000553311F360911F026533F1F2992309F4B9
:1015600047C0222309F44AC0332309F450C044235E
:1015700009F453C0552309F453C06111CDCF25E0C0
:1015800030E0F901E75EFD4F95E39183C5CF90917F
:101590001A02993209F220911B02293209F4BCCFB8
:1015A00030911C02393209F4B7CF40911D02493203
:1015B00009F4B2CF50911E02593209F4ADCF6091B7
:1015C0001F02693209F4A8CF9923A9F02223C9F098
:1015D0003323D1F04423F1F0552329F161119CCF3D
:1015E00025E030E0F901E75EFD4F99E2918394CF69
:1015F00020E030E0C6CF20E030E0F4CF21E030E062
:10160000C0CF21E030E0EECF22E030E0EBCF22E0AF
:1016100030E0B7CF23E030E0E5CF23E030E0B1CFDA
:1016200024E030E0AECF24E030E0DCCF80914B020C
:1016300090914C02981721F080934C0281E008951C
:1016400080E008950C949E0D10926002E0E0F0E0BE
:10165000E052FE4F60E080810E94D608E091600277
:10166000F0E0E052FE4F61E080810E948509E09148
:101670006002EF5FE0936002EE3048F3089510924D
:101680006002E0E0F0E0E251FE4F60E080810E9405
:10169000D608E0916002F0E0E251FE4F61E0808107
:1016A0000E948509E0916002EF5FE0936002E530FF
:1016B00048F3089510926002E0E0F0E0E45FFE4F2E
:1016C00060E080810E948509E0916002EF5FE09315
:1016D0006002E23090F3089510926002E0E0F0E0E2
:1016E000E45FFE4F61E080810E948509E091600225
:1016F000EF5FE0936002E23090F308950F931F9341
:10170000CF93DF931092600280E0C1E0D0E00BC085
:1017100061E080810E948509809160028F5F8093E3
:1017200060028230F0F4282F30E0AE0102C0440F96
:10173000551F8A95E2F78091200290E0842395233B
:10174000F901E45FFE4F4817590711F760E0808107
:101750000E948509809160028F5F809360028230D1
:1017600010F3809162028F3F91F0811108C08FEFDA
:1017700080936202DF91CF911F910F910895815064
:1017800080936202DF91CF911F910F910895809114
:10179000200282FF28C0C0E0D1E000E010E008C0D5
:1017A000998388830F5F1F4F229606301105E9F059
:1017B00028813981F901E153F94F6491F901E1532D
:1017C000FB4F4491F901E153FD4F2491C8010E9460
:1017D0008212888199810196811522E0920700F397
:1017E00019821882DFCF0E947A12809162028150A2
:1017F00080936202DF91CF911F910F910C948E1212
:10180000CF93DF9380EF80934A0210925F02E0E073
:10181000C8E0DFE0F0E0E251FE4F61E080810E942D
:10182000D608E0915F02F0E0E251FE4F60E0808177
:101830000E94850910926102E0E010C08EE0A89F2E
:10184000D0011124A25FBE4FAE0FB11D8C918777DE
:101850008C93EF5FE0936102EE3010F5F0E0E05220
:10186000FE4F80810E94340AE0916102A0915F02E4
:101870008111E4CF8EE0A89FD0011124A25FBE4F5A
:10188000AE0FB11D8C9188688C93C093F5018E3E8C
:1018900001F7D0934A02EF5FE0936102EE30F0F27D
:1018A00010926002E0E0F0E0E251FE4F60E08081E3
:1018B0000E94D608E0916002F0E0E251FE4F61E044
:1018C00080810E948509E0916002EF5FE0936002F1
:1018D000E53048F3E0915F02EF5FE0935F02E530AF
:1018E00008F498CF0E9474070E946C0710924B0274
:1018F00010925F0240E01092610290E01DC0803BB8
:1019000009F4CCC008F485C0803D09F4BBC0803F19
:1019100009F4ABC0803C59F426563E4FE20FF31F4A
:1019200080810E943A0740915F02909161029F5F1F
:10193000909361029E3070F5E92FF0E08EE0489FB1
:1019400090011124D901A25FBE4FAE0FBF1F5C9161
:1019500080914A0285238F3009F4B9C080F68B301C
:1019600009F469C008F042C0893009F471C08A30B6
:10197000F1F6A9014C5A5E4FE40FF51F80810E94D9
:10198000BD0740915F02909161029F5F9093610259
:101990009E3090F24F5F40935F02453008F4ABCF2A
:1019A0000E94160B882319F083E08093F4010E94B3
:1019B000C307882319F083E08093F4010E941D0877
:1019C00081119EC08091F501883009F4A1C0813059
:1019D00009F4A6C09091F40181119EC0992319F0D9
:1019E00091509093F401DF91CF9108958C3009F4D8
:1019F00061C08D3009F09BCFA9014C5A5E4FE40FB6
:101A0000F51F80810E94400740915F029091610222
:101A10008ECF803909F468C0803A09F088CF265605
:101A20003E4FE20FF31F80810E94BD0740915F028D
:101A3000909161027CCFA9014C5A5E4FE40FF51FD3
:101A400080810E94660740915F02909161026FCF92
:101A5000A9014C5A5E4FE40FF51F80810E947E075A
:101A600040915F029091610262CFA90146565E4F9C
:101A7000E40FF51F80810E948A0A40915F029091D5
:101A8000610255CF26563E4FE20FF31F80810E9420
:101A9000400740915F029091610249CF26563E4F28
:101AA000E20FF31F80810E94660740915F029091D0
:101AB00061023DCFA9014C5A5E4FE40FF51F8081B2
:101AC0000E943A0740915F029091610230CFC901B4
:101AD0008C5A9E4FE80FF91F80810E948A0A40911C
:101AE0005F029091610223CF26563E4FE20FF31F13
:101AF00080810E947E0740915F029091610217CF22
:101B000083E08093F4018091F501883009F05FCF84
:101B10009091F401913059F081508093F5015ECF9E
:101B20000E940E080E945B088091F50153CF0E942D
:101B30000E080E945B088091F50149CF80E88093F0
:101B40006100109261000E94D2080E94050E0E945E
:101B5000260E81110AC02FEF85EA9EE021508040B9
:101B60009040E1F700C00000F2CF0E94240B0E94D9
:101B70003F0BCFEF10926002E0E0F0E0E45FFE4F39
:101B800061E080810E94D608E0916002F0E0E45FAD
:101B9000FE4F60E080810E948509E0916002EF5F66
:101BA000E0936002E23048F30E947812C093620230
:101BB0000E947A120E948E1281E080932602809306
:101BC00021020E9487042FEF89E698E1215080408E
:101BD0009040E1F700C000000E9474070E946C076B
:101BE00022E348E061E072E081E00E94290E0E9459
:101BF000840680912102823009F4BCCF8130B9F78C
:101C00000E94000C0E947E0BF2CF81E08093D700EF
:101C100080EA8093D80082E189BD09B400FEFDCF3F
:101C200080E98093D8001092E0001092F8018CE0D7
:101C30008093E20078940E9410070E94EE060E94B2
:101C40002B0710924B0210924C0208958091F801DC
:101C500008959091F8019923E9F09FB7F894309195
:101C6000E400230F8093E9003091E80035FF0DC0B8
:101C700013C09091E400291769F09FB7F8948093FE
:101C8000E9003091E80035FD07C09FBF9091F80151
:101C90009111EFCF81E00895442351F0FB019B01A6
:101CA000240F311D81918093F1002E173F07D1F74A
:101CB0008AE38093E8009FBF80E008951F920F920F
:101CC0000FB60F9211242F933F934F938F939F93AF
:101CD0008091E1001092E10083FF0FC01092E900B3
:101CE00091E09093EB001092EC0092E09093ED0065
:101CF00098E09093F0001092F80182FF04C0809168
:101D0000F80181110AC09F918F914F913F912F91BE
:101D10000F900FBE0F901F9018959091F7019F5F45
:101D200089E2989F812D1124869586958695392F75
:101D300022E3829F30191124832F311116C0109293
:101D4000F7019091E80095FF12C090912602992327
:101D500071F02091210221114AC08091F801811176
:101D60004EC021E02093260202C09093F70190918B
:101D70002202992341F28091F6018F5F8093F60150
:101D8000837009F0C0CF81E08093E9008091E80082
:101D900085FFB9CF809123028F5F8093230289133F
:101DA000B2CF10922302809101028093F1008091C2
:101DB00002028093F100809103028093F1008091F0
:101DC00004028093F100809105028093F1008091DC
:101DD00006028093F100809107028093F1008091C8
:101DE00008028093F1008AE38093E8008CCF909101
:101DF000F801911154C081E080932602B8CF8FB7CB
:101E0000F8943091E40094E09093E9009091E80018
:101E100095FD20C08FBF8091F801882309F4A1CFE0
:101E20008091E400381709F49CCF44E00BC08FBFC9
:101E30008091F801882309F494CF8091E400381749
:101E400009F48FCF8FB7F8944093E9009091E800A0
:101E500095FFEDCF9091F1009093F9019091F100F1
:101E60009093FA019091F1009093FB019091F10011
:101E70009093FC019091F1009093FD019091F100FD
:101E80009093FE019091F1009093FF019091F100E9
:101E9000909300029AE39093E8008FBF63CF9FB7BF
:101EA000F8943091E40024E02093E9002091E800C8
:101EB00025FD20C09FBF9091F801992309F49BCF85
:101EC0009091E400931709F496CF44E00BC09FBFB4
:101ED0009091F801992309F48ECF9091E40039177D
:101EE00009F489CF9FB7F8944093E9002091E80066
:101EF00025FFEDCF2091F1002093F9012091F10011
:101F00002093FA012AE32093E8009FBF75CF1F9228
:101F10000F920FB60F9211242F933F934F935F931D
:101F20006F937F938F939F93AF93BF93EF93FF93A1
:101F30001092E9008091E80083FF38C07091F100B1
:101F40004091F1008091F1002091F10090E0922BFE
:101F50002091F1005091F10030E0352B6091F100BB
:101F6000E091F10052EF5093E800463099F145308E
:101F700009F43EC1493009F47BC0483009F407C177
:101F80004111B5C18091E80080FFFCCF723809F49F
:101F900084C180E08093F1001092F1008EEF809375
:101FA000E80007C02115310509F00AC181E28093DC
:101FB000EB00FF91EF91BF91AF919F918F917F9136
:101FC0006F915F914F913F912F910F900FBE0F90A6
:101FD0001F901895811541E0940709F455C18115AA
:101FE000F2E09F0709F463C1811542E2940709F406
:101FF00025C18115F1E29F0709F462C1811523E033
:10200000920709F061C2A4E0B0E024E048E751E0A3
:10201000862F90E09E2B8F3F910509F020F48A17C0
:102020009B0708F4262F6EEF8091E8008570E1F39E
:102030008091E80082FDBDCF322F293008F41FC106
:1020400038E0FA01832F94919093F10081503196FA
:102050008111F9CF8FEF830F90E00196480F591F40
:10206000231B6093E8002111DFCF3830E9F2A1CFC4
:1020700071118FC08093F8018EEF8093E80081E0AA
:102080008093E900E2E4F1E0E491E093EB00EE23D9
:1020900009F463C1E3E4F1E0E491E093EC00E4E4EB
:1020A000F1E0E491E093ED0025E431E082E08093FB
:1020B000E900C9010196F90144914093EB004423E2
:1020C00051F0FC0184918093EC00C9010396319694
:1020D00024912093ED0023E02093E9009C012F5FE1
:1020E0003F4FFC0144914093EB00442359F0F90128
:1020F00024912093EC009C012D5F3F4F31968491F9
:102100008093ED0084E08093E900C9010196F90114
:1021100044914093EB00442351F0FC01849180935F
:10212000EC00C9010396319624912093ED0025E03F
:102130002093E9009C012F5F3F4FFC0144914093A5
:10214000EB00442359F0F90124912093EC009C0109
:102150002D5F3F4F319684918093ED0086E0809310
:10216000E900C9010196F90144914093EB00442331
:1021700041F0FC0184918093EC00319624912093EE
:10218000ED008EE78093EA001092EA0012CF7038DB
:10219000D1F121153105A1F4713A09F4E1C0713290
:1021A00009F004CF4930D9F14A3009F485C14B30E8
:1021B00009F0FCCE809324028EEF8093E800F9CEE4
:1021C0002230310509F444C02130310509F0EECE4A
:1021D000713A09F412C1713209F0E8CE4B3009F4BA
:1021E00065C14A3009F0E2CE8EEF8093E800E1CE7F
:1021F0002EEF2093E8002091E80020FFFCCF8068BC
:102200008093E300D6CE8091E80080FFFCCF8091E0
:10221000F8018093F1008EEF8093E800CACE8091A0
:10222000E80082FFFCCF8091F100809320028BEFC9
:102230008093E8008EEF8093E800BBCE2115310536
:1022400009F047C0A0E4B0E020E44DE752E0E0CE62
:10225000713A09F403C1713209F0A8CE4A3021F273
:10226000493009F0A3CE8091E80082FFFCCF8BEFCC
:102270008093E8008091E80080FFFCCFB5CF21116A
:10228000E0CE6093E80095CE232B09F08FCEA2E13B
:10229000B0E022E14DEB52E0BBCE2093E90080910B
:1022A000EB0085FB882780F91092E90073CE232B81
:1022B00009F07CCEABE5B0E02BE54CE751E0A8CED1
:1022C00021153105E1F5A9E0B0E029E04EE851E043
:1022D0009FCE2230310509F48AC02130310509F042
:1022E00065CEA4E8B0E024E849EF51E091CE542F48
:1022F0005D7F513009F04DCF723009F04ACF009721
:1023000009F050CE522F5F776FEF650F663008F0FF
:1023100049CE8EEF8093E8005093E900433009F4F2
:1023200045CE89E18093EB0081E090E001C0880F09
:102330005A95EAF78093EA001092EA003ACE2230EA
:10234000310509F4ADC02130310509F02FCEA9E0E7
:10235000B0E029E047EA51E05BCE23E431E0A6CECD
:10236000413089F04230B9F1433009F01FCE8091FD
:10237000E80080FFFCCF809124028093F1008EEF73
:102380008093E80016CE8091E80080FFFCCF80911A
:1023900001028093F100809102028093F10080910C
:1023A00003028093F100809104028093F1008091F8
:1023B00005028093F100809106028093F1008091E4
:1023C00007028093F100809108028093F1008EEF64
:1023D0008093E800EECD8091E80080FFFCCF8091F3
:1023E00022028093F1008EEF8093E800E2CDA2E21A
:1023F000B0E022E247ED51E00BCE413079F04330BE
:1024000009F0D4CD8091E80080FFFCCF80913C02A0
:102410008093F1008EEF8093E800CBCD8091E800AF
:1024200080FFFCCF809127028093F10080912802E9
:102430008093F100809129028093F10080912A021B
:102440008093F10080912B028093F10080912C0207
:102450008093F1008EEF8093E800ABCD413009F01E
:10246000A5CD28E03EEF8091E800982F9570D9F334
:1024700082FD9FCD922F293070F098E0892F109225
:10248000F1008150E1F7291B3093E8002111EBCFD7
:10249000983049F38ECD2111F1CF3093E80089CDEA
:1024A000A9E0B0E029E040EC51E0B2CD80933C02DD
:1024B0008EEF8093E8007DCD90932202109223024C
:1024C0008EEF8093E80075CD813043E0940751F0A2
:1024D0008230934009F06ACDACE1B0E02CE140E5F8
:1024E00051E096CDACE0B0E02CE04CE651E090CD70
:1024F000869A089582E1EDE4F2E0DF011D928A956B
:10250000E9F70895FC01EE0FFF1F8E0F9F1FFC01DE
:10251000E35BFD4F4083618322830895F894EDE4EB
:10252000F2E02FE532E062C000008E98000000006B
:1025300000000000000000000000000080818E9A72
:1025400086FD78C000008E980000000000000000AA
:10255000000000000000000080818E9A85FD79C097
:1025600000008E9800000000000000000000000045
:102570000000000080818E9A84FD7AC000008E9851
:10258000000000000000000000000000000000004B
:1025900080818E9A83FD7BC000008E980000000031
:1025A00000000000000000000000000080818E9A02
:1025B00082FD7CC000008E9800000000000000003A
:1025C000000000000000000081918E9A81FD7DC016
:1025D00000008E98000000000000000000000000D5
:1025E000000000002E173F0709F47EC08E9A0000FD
:1025F0008E980000000000000000000000000000B5
:102600000000808190E0880F892F881F990B8E9A97
:10261000892B09F489CF00000000000000000000B1
:10262000000000000000000000008E9880818E9A5B
:1026300086FF88CF000000000000000000000000BE
:1026400000000000000000008E9880818E9A85FFB7
:1026500087CF000000000000000000000000000024
:102660000000000000008E9880818E9A84FF86CF43
:10267000000000000000000000000000000000005A
:10268000000000008E9880818E9A83FF85CF000025
:10269000000000000000000000000000000000003A
:1026A00000008E9880818E9A82FF84CF0000000007
:1026B000000000000000000000000000000000001A
:1026C0008E9881918E9A81FF83CF000000000000D8
:1026D00000000000000000000000000000008E98D4
:1026E0002E173F0709F082CF78940895EE0FFF1F51
:1026F0000590F491E02D0994F999FECF92BD81BD2A
:10270000F89A992780B50895A8E1B0E042E050E03A
:102710000C9491130E949F13272F0C94A013DC019B
:10272000CB01FC01F999FECF06C0F2BDE1BDF89ADC
:10273000319600B40D9241505040B8F70895262FBD
:10274000F999FECF1FBA92BD81BD20BD0FB6F89496
:0E275000FA9AF99A0FBE01960895F894FFCFF9
:10275E0000002200440066008800AA0012027111D7
:10276E00111111111111111111111111111111114B
:10277E001111111111111111111111131313101037
:10278E001010101010100011220011111111101044
:10279E0010151500101122662200001100101100F4
:1027AE0066221111353A3B3C3D3E3F404142434487
:1027BE00454C2B595A5B5C5D5E5F606162565731CA
:1027CE003901040200000000000000000028020091
:1027DE0053474946000000EAE90000520100040098
:1027EE00002C000050000010514F041E1F2021220B
:1027FE0023242526272D2E2A2B141A0815171C18CC
:10280E000C12132F303139041607090A0B0D0E0F57
:10281E003334002802001D1B06190511103637002F
:10282E00385201000400002C003850000010514FA7
:10283E001514180A090F1601040E0D0C0B030506CC
:04284E000708170060
:00000001FF
